:020000040800F2
:1000000028100020790200082D340008253400084B
:1000100029340008051C00084538000800000000CD
:10002000000000000000000000000000593400083B
:10003000091C0008000000008F020008910200085F
:10004000930200089302000893020008930200083C
:10005000930200089302000893020008930200082C
:10006000930200089302000893020008930200081C
:10007000930200089302000893020008930200080C
:1000800093020008930200089302000893020008FC
:1000900093020008930200089302000893020008EC
:1000A00093020008930200089302000893020008DC
:1000B00093020008930200089302000893020008CC
:1000C00093020008930200089302000893020008BC
:1000D0009302000819370008930200083D37000812
:1000E000930200089302000893020008930200089C
:1000F000930200089302000893020008930200088C
:10010000930200089302000893020008930200087B
:10011000930200089302000893020008930200086B
:10012000930200089302000893020008930200085B
:1001300000F002F800F090F80AA090E8000C824469
:100140008344AAF10107DA4501D100F085F8AFF246
:10015000090EBAE80F0013F0010F18BFFB1A43F0A5
:1001600001031847D0A70000F0A70000103A24BFF1
:1001700078C878C1FAD8520724BF30C830C144BF0C
:1001800004680C607047000000230024002500264E
:10019000103A28BF78C1FBD8520728BF30C148BFEA
:1001A0000B6070476E2900F0F882702900F05F81C3
:1001B000662907F00B83652907F00883672907F094
:1001C0000583612907F0048303681B0A28BF41F0F7
:1001D0008001692900F0D080642900F0CD80752964
:1001E00000F0CA806F2900F0F083782900F02B819D
:1001F000E92900F08B83E42900F08883F52900F0D9
:100200008583EF2900F0ED83F82900F02A81036847
:10021000DB0928BF41F08001632900F0FA827329CD
:1002200000F0FF82E32900F0C387F32900F0C887BC
:10023000002070471FB501F019F8040000200021CC
:1002400007F070F9401C60600020002107F054F9AD
:10025000E0601FBD10B510BD00F0DAFF1146FFF7DA
:10026000E9FF06F05FFF01F0B7F803B4FFF7F2FF14
:1002700003BC03F020FB0000094880470948004701
:10028000FEE7FEE7FEE7FEE7FEE7FEE7FEE7FEE746
:10029000FEE7FEE704480549054A064B70470000A3
:1002A0005B34000831010008280A002028100020D3
:1002B000280C0020280C0020704700001CB50C46BC
:1002C000064B7B4469460090204600F080FA0446C5
:1002D0000020694600F08EFA20461CBD2F05000064
:1002E0000FB4044910B503AA029800F09FFA10BC9D
:1002F0005DF814FB080000200FB41CB5084B06AADB
:100300007B4469460090059800F061FA044600209D
:10031000694600F06FFA20461CBC5DF814FB000033
:10032000F104000070B50C460546012A05D0287876
:10033000800600D5EA69002302E0012305E05B1C8A
:10034000934202D2E05C0028F9D1A869E618C01AED
:10035000A861286A18442862284600F08CF904E055
:10036000D5E9012114F8010B9047B442F8D328468F
:1003700000F097F970BD00002DE9F0410646002419
:1003800010687529314616A510D000F09BF9002899
:1003900002DA404213A507E031688A0701D512A5A9
:1003A00002E0490704D511A5012401E000F093F90A
:1003B00000210A2206F1240709E0B0FBF2FCB0FBA1
:1003C000F2F302FB1C00303078541846491C002818
:1003D000F3D123462A463046BDE8F04100F084B907
:1003E000000000002D0000002B0000002000000095
:1003F000F0B40D460188090502D5214C7C4402E089
:100400001F4C7C440E34002100F1240608E002F069
:100410000F071209E75D42EA03721B097754491C72
:1004200052EA0307F3D102780023120704D5702D96
:1004300006D009B1022311342246F0BC00F054B9B1
:1004400001231034F8E770B504460D4621461068C4
:1004500000F041F9024629462046BDE870400023DD
:10046000C6E7D21D22F00703D3E90023C0E70368E3
:10047000126843F0200303600823C3610023B7E739
:100480006CA300002DE9F05F894604464FF0000A96
:10049000DFF874B1FB44C0F820A02046E16888472B
:1004A000002874D0252806D0D4E901219047206A7D
:1004B000401C2062F1E700265F462046E16888473D
:1004C0002028054607DB312D05D2781910F8200CBD
:1004D00008B10643F1E7B00701D526F00406C4F8D9
:1004E0001CA00027C4F818A02A2D09D0284603F024
:1004F000DBF938B304EB8708303DC8F8185019E031
:1005000059F8041B204604EB87029161E168884793
:10051000012F054618D1E069002820DA26F02006D0
:100520001DE0D8F8180000EB800005EB40003038E3
:10053000C8F818002046E1688847054603F0B4F97A
:100540000028EED1012F0AD02E2D08D12046E168D7
:1005500088477F1C0546022F46F02006C4DBA069B1
:10056000002803DA404246F00106A061F00701D0FE
:1005700026F010066C2D0BD0682D09D04C2D39D0EB
:100580006A2D35D0742D35D07A2D33D016E038E071
:10059000E1682F4620468847B842054609D16C2FAE
:1005A00026D04FF48060E168064320468847054620
:1005B00004E06C2F1AD04FF4807006430DB3A5F100
:1005C0004100192802D8203546F400664A462946DB
:1005D000204626604E46FFF7E5FD80B101280BD08E
:1005E000F61D26F0070000F1080956E74020E4E771
:1005F0008020D8E70020D6E706F104094DE7284619
:1006000052E7206ABDE8F09FFCA2000030B5054625
:100610000B462A4613F8014B12F8010B08B1A04211
:10062000F8D01CB1002802D06D1CF1E7284630BD7F
:1006300010B5431C02E010F8011B71B18107FAD11B
:100640004FF0013202C88C1A8C4314EAC211F9D05F
:10065000C01A0A0603D0C01E10BDC01A10BD0A047D
:1006600001D0801E10BD0902FCD0401E10BD704795
:1006700070477047704770B5044685690068C106C9
:1006800001D5302600E02026C00707D070BDD4E990
:10069000012130469047206A401C20626D1EF6D52D
:1006A00070BD70B5044685690078C00707D170BD7C
:1006B000D4E9012120209047206A401C20626D1E51
:1006C000F6D570BD09684A0501D540B27047C90525
:1006D000FCD500B2704709684A0501D5C0B2704721
:1006E000C905FCD580B270472DE9F0470D46994603
:1006F0009246044600F124080168880604D5E069A2
:1007000021F01001216000E00120A84201DD471B1B
:1007100000E00027A1697A1902EB0900081AA0611C
:100720002078C00602D42046FFF7A5FF002608E087
:10073000D4E901211AF806009047206A401C761C73
:1007400020624E45F4DB2078C0060AD52046FFF72C
:1007500092FF06E0D4E9012130209047206A401C36
:100760002062381EA7F10107F4DC07E0D4E901217B
:1007700018F805009047206A401C2062281EA5F149
:100780000105F3DC2046FFF78CFF2078000602D538
:100790000220BDE8F0870120FBE711680268006ACB
:1007A000530501D508700AE0D30501D5088006E09D
:1007B000130603D5C217C1E9000200E0086001205A
:1007C0007047000001694A1C02610878704700B553
:1007D0008FB0CDE901310021059105497944CDE97A
:1007E000031011466846FFF74DFE0FB000BD000034
:1007F000E5FFFFFF0A6802F8010B0A60704710B5B9
:10080000436913B1AFF3008001E0FFF78BFD0120D6
:1008100010BD127800F124010A7000224A700122F2
:10082000EDE711684FF0FF32E9E70000074B70B5C4
:100830000D467B44FFF7CBFF0446284600F0C4FC7E
:1008400010B14FF0FF3070BD204670BD6B37000017
:100850002DE9FF5F15468A460446DFF8AC80F84470
:100860000027D8E900103E46CDE9001010E03AF824
:1008700016106A4602A800F0ABFC411C07D0217894
:10088000890603D5E269391891420DD80744761CD0
:100890002078800602D5E069B84205DDAE42E6DB8D
:1008A0003AF816000028E2D1A069C01BA0612046DA
:1008B000FFF7E1FED8E90010CDE90010002017E0B5
:1008C0003AF818106A4602A800F082FCB0F1FF3F27
:1008D00081460BD000250DF1080B05E0D4E901217C
:1008E0001BF8050090476D1C4D45F7D308F101003A
:1008F000B0428046E4DB206A384420622046FFF79D
:10090000D0FEBDE8FF9F0000469F00002DE9F041AA
:100910008046D21D22F007020025D2E90002F52907
:1009200015A614D0011E72F1000106DA0023D0EBE7
:10093000030063EB020211A608E0D8F800108B0751
:1009400001D50FA602E0490701D50EA601251146E3
:10095000002408F1240704E000F04EF830323A5544
:10096000641C50EA0102F7D12B463246214640462C
:10097000BDE8F041FFF7B8BE000000002D00000008
:100980002B0000002000000030B4002100F12404FE
:1009900008E002F00705D208303542EA4372DB086E
:1009A0006554491C52EA0305F3D10468002310A2E0
:1009B000250707D5A40600D421B1C46901230DA2DF
:1009C000641EC46130BCFFF78FBE10B504462146DB
:1009D0001068FFF780FE02462046BDE81040002365
:1009E000D2E7D21D22F00701D1E90023CCE70000B5
:1009F000000000003000000030B5B0F10A024FEAFC
:100A0000900E71F100034EEA817EB0EB0E0061EBB7
:100A100091014FEA101E4EEA017E10EB0E0041EBF1
:100A200011114FEA102E4EEA016E10EB0E0041EB51
:100A300011214FEA104E4EEA014E10EB0E0041EB31
:100A40001141401841F100014FEAD00040EA4170E5
:100A50004FEAD10110EB80054FEA810444EA90741B
:100A600044EB01046D1944EB0404521BA3414FF005
:100A7000000348BF0A3200D530BD401C41F10001DF
:100A800030BD70472DE9FF4F0C461E464FF0FF3733
:100A90008BB0D2E90001DDF860800A908A46C1F38C
:100AA0000A5505B93D46002108464FF00000BAF14D
:100AB000000F00F4400005DA00EB80004FF4400125
:100AC00001EA50004FEA9059B9F1010F00DDB94633
:100AD0000A9850EA4A000ED044F61050A5F2FF35AD
:100AE00045432F14B8F1000F1ED07542291E1EDD9C
:100AF000C9F100021CE0B8F1010F4FF0000001D075
:100B0000302103E0F24305E02154401CB042FBDBFE
:100B100030460022002121540B99C1F80880C1E918
:100B200000200FB0BDE8F08FBD1B6D1CDEE74A460C
:100B300000DA694206A800F0DDFB06AB93E8070087
:100B400003AB83E8070050460A9900F093FC8DE858
:100B50000700A0F500501F3800900398002D0ADD13
:100B600042F21F014A460844002303A90390684645
:100B700000F0FCFE09E0A0F500504A461F380023B3
:100B800003A90390684600F006FF8DE80700000403
:100B9000000C03D04FF0FF30410800E01046B8F1E0
:100BA000000F03D00022009215461EE0751E05D4EA
:100BB000FFF722FF303262556D1EF9D5B346012290
:100BC000084302D000227F1C04E02078302801D1A5
:100BD00000227F1E002A099784D01DE0112D07DA1C
:100BE000FFF70AFF303262556D1C50EA0102F5D161
:100BF000084302D00098C8B10EE00021681E05E04D
:100C0000235C625C63542254401E491C8142F7DB22
:100C1000AB46A81B401E0990002004F80B000B985F
:100C2000099AC0F80880C0E9002B7AE711264FF036
:100C3000000857E72DE9F04F88460446D21D22F000
:100C4000070191B0D1E90001CDE90A0102F0FCFDF4
:100C500002460B98C00F01D02D2007E020688107C5
:100C600001D52B2002E0202101EAC000032A0990CF
:100C700001D0072A05DB03464146204600F0FAFA78
:100C80000BE12078800601D5E06900E00620B8F18C
:100C9000650F814606D0B8F1660F18D0B8F1670F1E
:100CA00070D131E00020B9F1110F009001DB112368
:100CB00001E009F101030AAA01A90CA8FFF7E2FE6D
:100CC000DDE90C70002609F10105834647E00120AB
:100CD0004B4600904FF000470AAA01A90CA8FFF765
:100CE000D1FEDDE90DB00C995D46002610B909F181
:100CF00001000D18B9EB050003D4C0F1FF3609F16E
:100D00000105A5EB09002BE0B9F1010F01DA4FF065
:100D100001090020B9F1110F0090484601DD1123AF
:100D200000E003460AAA01A90CA8FFF7ABFEDDE923
:100D30000C704D4600268346207800070AD4AB4548
:100D400000DA5D4601A8012D04DD411911F8011CEE
:100D5000302907D04F4502DA17F1040F04DA0120D9
:100D600082460FE06D1EEEE7002F02DCED1B3E44D5
:100D700003E0781CA84200DD7D1CB81B00F1010ACD
:100D80004FF000472078000703D4AA4501DB4FF05D
:100D9000FF3A0021B7F1004F0DF143088DF84310E1
:100DA00024D002202B23002F01DA7F422D230A2199
:100DB000021EA0F1010000DC5FB197FBF1FC97FB84
:100DC000F1F201FB1C7C17460CF1300C08F801CD48
:100DD000EEE7A8F1010003702188090501D545213E
:100DE00000E06521A0F1010800F8011C09980FA995
:100DF000A1EB0807FF1D00B10120411901EBEA70CA
:100E0000A1693844081A401EA0612078C00602D4A7
:100E10002046FFF730FC099828B1D4E9012190471A
:100E2000206A401C20622078C00622D52046FFF7A9
:100E300022FC1EE0002E04DBB34502DD01A8805D2C
:100E400000E03020D4E901219047206A401C206254
:100E5000761CAAF101005FEA000A0AD100F006FA46
:100E6000C0680168405CD4E901219047206A401CB9
:100E70002062281EA5F10105DCDC07E0D4E9012190
:100E800018F8010B9047206A401C2062381EA7F119
:100E90000107F3DC2046FFF704FC032011B041E614
:100EA0002DE9F04F04460D46D21D22F0070089B00F
:100EB000D0E900974846394602F0C6FC0246F80FD2
:100EC00001D02D2307E02068810701D52B2302E004
:100ED000202101EAC0038DF820300BB1012000E091
:100EE0000020032A824601D0072A04DB2946204637
:100EF00000F0C0F93FE12078800601D40D2500E024
:100F0000E569C7F30A560D2D49DA00214FEA175B50
:100F100008464FF00000002F00F4400007DA00EB15
:100F200080004FF4400100EBD07001EA60008115B1
:100F3000012901DD4FF0FF3100224FEA850CBCF1A1
:100F4000180F06D31346ACF118004FF08052C24080
:100F500003E04FF4801323FA0CF30CF10C0CBCF1FA
:100F6000200F04D3ACF1200C09FA0CF001E007FAD1
:100F70000CF000294FF0004801DD18B90FE00ED148
:100F800040450CD319EB02095F4121B9404502D11C
:100F90009F4329EA0209BBEB175F00D0761C20882B
:100FA000000502D57B48784402E07A487844193835
:100FB00008AA302302F80A30037C0AF10101002E4E
:100FC0000AF1020A53546A4602DC4FF0300101E094
:100FD0004FF031014FF001088DF8001002D0A6F259
:100FE000FF3603E059EA470100D06B4E002D02DCCA
:100FF0002178090704D54FF002082E218DF8011041
:10100000C44600210BE0C7F303433F01C35C491C06
:101010006D1E02F80830052908F1010801DA002DDB
:10102000F1DC00210CE000EB1973491C1B786D1EEC
:10103000082902F808304FEA091908F1010801DA15
:10104000002DF0DC21688B0602D516E0A8F101081E
:10105000E04505DD02EB080313F8013C302BF5D029
:10106000B8F1000F09DD02EB080313F8013C2E2B49
:1010700003D1090701D4A8F10108002D05DD3E21A7
:1010800002F808106D1E08F10108407C002E02F8DD
:10109000080008F1010804DA2D20764202F8080061
:1010A00002E02B2002F808000A214FF47A708642F1
:1010B00008F101080BDB96FBF0F3303302F808303F
:1010C00096FBF0F308F1010800FB136601E0642EC3
:1010D0000CDB642096FBF0F3303302F8083096FB0B
:1010E000F0F308F1010800FB136601E00A2E06DBAD
:1010F00096FBF1F0303002F8080008F1010896FB89
:10110000F1F001FB1060303002F80800A16908F12D
:10111000010808EB050202EB0A00081AA06120781A
:10112000C00602D42046FFF7A6FA216A08AE01EBFA
:101130000A00206204E0D4E9012116F8010B90476F
:10114000BAF1010AF7D22078C00602D52046FFF78F
:1011500092FA6E4609E016F8010B3E280FD0D4E94A
:1011600001219047206A401C2062B8F10108F2D2A8
:101170002046FFF796FA09B00320BDE8F08F206AF9
:101180002844206203E0D4E90121302090476D1EFD
:10119000EBD3F8E71998000002FCFFFF10B5436994
:1011A00013B1AFF3008001E0FFF752FB012010BD47
:1011B000128800F1240182840022C2840122EDE71A
:1011C00011684FF0FF32E9E7007B00F080007047C4
:1011D00070B516460C46054600F040F8036893F8D3
:1011E0000101012806D0FF2C0FD8185D68B101203D
:1011F0002C7070BDD3F807013246214603F2071365
:1012000003442846BDE8704018474FF0FF3070BDDA
:10121000754600F0EBF8AE4605006946534620F0EF
:101220000700854618B020B5FFF734F8BDE8204028
:101230004FF000064FF000074FF000084FF0000B92
:1012400021F00701AC46ACE8C009ACE8C009ACE845
:10125000C009ACE8C0098D467047000010B500F029
:1012600005F8001D10BD00BFBD62000000487047BA
:10127000E80900202DE9F0411F46044603260168D5
:10128000072A01F4006004DB08B116A505E016A5E5
:1012900003E008B115A500E015A521F010002060BD
:1012A000A069C01EA0610FB1401EA0612046FFF7DB
:1012B000E2F94FB1D4E9012138469047206A401C39
:1012C0002062C01C206206E0206AFAE7D4E901210E
:1012D00015F8010B9047761EF8D22046FFF7E1F98A
:1012E000BDE8F0814E414E006E616E00494E4600F1
:1012F000696E66002DE9F047814616468AB035488A
:1013000078440DC88DE80D0032487844801C03AC49
:101310000DC884E80D0041F69B300844372190FB4E
:10132000F1F290FBF1F5A5F1800501FB12041B3CE5
:1013300002D56442012000E00020DFF898A080463A
:101340000027FA44AAF1BE0A0EE0E0070AD03246AE
:10135000684607EB470101230AEB810100F01BFB04
:101360008DE8070064107F1C002CEED1194F7F44DC
:10137000AE3F19E0E80715D007EB04100DF1180A8D
:1013800090E80E008AE80E00C068F04201D198197A
:1013900008903246012306A903A800F0FCFA03AB2B
:1013A00083E807006D10641C002DE3D14FF00103AA
:1013B00032466946B8F1000F03A802D000F0D6FA11
:1013C00001E000F0E8FAC9E90001C9F808200AB014
:1013D000BDE8F0875095000010B50446AFF30080DB
:1013E0002046BDE81040FEF740BF000000487047AF
:1013F000C80900204FF0013C50F8042B51F8043B81
:101400009A4221D1A2EB0C03934313EACC1317D1D8
:1014100050F8042B51F8043B9A4215D1A2EB0C036F
:10142000934313EACC130BD150F8042B51F8043B2F
:101430009A4209D1A2EB0C03934313EACC13DBD0FD
:101440004FF00000704700BFD01A01BAB1FA81F125
:1014500001F0180122FA01F0CB40C1F12001DBB20A
:10146000C0B2C01A2CFA01F3D11A914311EAC31188
:10147000E6D170475FEA400C08BF91F0000F4FEAD9
:101480008C234FEAC12243EA51514FEA1C5018BF46
:1014900000F5F0404FEA300018BF41F000415FEA2C
:1014A0006C5C00F02980BCF1FF3F08BF40F0804039
:1014B0007047130C06BF12044FF0100C4FF0000CD5
:1014C000130E04BF12020CF1080C130F04BF12011B
:1014D0000CF1040C930F04BF92000CF1020CD30F1B
:1014E00004BF52000CF1010C11464FF00002A0F1B4
:1014F0001F00A0EB0C00704711F0004F08BF7047B1
:1015000031F000413FF4D5AF0B0C06BF09044FF09A
:10151000100C4FF0000C0B0E04BF09020CF1080C6C
:101520000B0F04BF09010CF1040C8B0F04BF8900E1
:101530000CF1020CCB0F04BF49000CF1010CCCF1F3
:101540002003A0EB0C0022FA03F302FA0CF241EAAA
:10155000030100F10100704720F07F4C80EA030096
:1015600023F07F47ACEB070303F57C5300F000400A
:1015700003F1FF032DE980494FEA154B09B44FEA07
:10158000144325EA0B4E24EA03480FF2042606EB27
:10159000132749083E785FEA320203FB0667C7F566
:1015A000000707FB06F64FEA54374FEAD64606F126
:1015B000020607FB066CCCF1005C4FEA1C472CEAE4
:1015C000074C07FB06F40CFB06F504EB15464FEA47
:1015D000961634BF00204FF000404FEAD13706FB8B
:1015E00007FC4FEA1C4C0CFB0BF7D21B03FB0CF760
:1015F00061EB07010CFB0EF7B0EB074072EB1742F3
:101600000CFB08F734BFA2EB0742B2EB074261EBD9
:1016100017414FEA0C444FEA910706FB07FC4FEADB
:101620001C4C0CFB0BF7B0EBC74072EB573203FBC3
:101630000CF734BFA2EBC742B2EBC74261EB5731A4
:101640000CFB0EF7B0EBC70072EB57720CFB08F700
:1016500034BFA2EBC702B2EBC70261EB5771039F25
:101660004FEA816141EA921104EBCC044FEAD13791
:101670004FEA826206FB07FC42EA90124FEA806062
:101680004FEA1C4C0CFB0BF7D21B03FB0CF761EB76
:1016900007010CFB0EF7B0EB074072EB17420CFB97
:1016A00008F734BFA2EB0742B2EB074261EB1741E8
:1016B0004FEA8C554FEA910704EB9C2406FB07FC8C
:1016C0004FEA1C4C0CFB0BF7B0EBC74072EB5732E8
:1016D00003FB0CF734BFA2EBC742B2EBC74261EB8E
:1016E00057310CFB0EF7B0EBC70072EB57720CFBD7
:1016F00008F734BFA2EBC702B2EBC70261EB577128
:1017000015EB4C254FEA816141EA92114FEA826262
:101710004FEAD13742EA901206FB07FC44F100047D
:101720004FEA80604FEA1C4C0CFB0BF7D21B03FB0B
:101730000CF761EB07010CFB0EF7B0EB074072EB07
:1017400017420CFB08F734BFA2EB0742B2EB07428B
:1017500061EB174115EB1C154FEA813141EA9241CB
:101760004FEA823242EA90424FEA80304FEA0C76EA
:1017700044F1000448EA03434EEA0B484FF0000EE0
:10178000B2EB080C71EB030724BF624639464EEBFF
:101790000E0E4FF0000B0018524149414BEB0B0B62
:1017A000B2EB080C71EB03077BF1000B24BF624620
:1017B00039464EEB0E0E4FF0000B001852414941D6
:1017C0004BEB0B0BB2EB080C71EB03077BF1000B3F
:1017D00024BF624639464EEB0E0E51EA020718BF8F
:1017E00046F0010616EB0E7655F1000254F10001A9
:1017F00003D5BDE88901BDE80088BDE88901BDE8E1
:101800000048B619524141EB0101A3F101037047B1
:1018100080807F7E7D7C7B7A79787776767574732D
:10182000727171706F6E6E6D6C6C6B6A6A696868EC
:10183000676666656464636362616160605F5F5E82
:101840005E5D5D5C5C5B5B5A5A59595858575756F8
:10185000565555555454535352525251515050505D
:101860004F4F4F4E4E4D4D4D4C4C4C4B4B4B4A4AAF
:101870004A494949484848474747474646464545F3
:10188000454444444443434343424242424141412C
:10189000002B9C4630D477002BD01CB54FEA37077D
:1018A00003B44FF010004FF01001BAF1000F06D052
:1018B000BCF1000FDCBF40F0080040F008014FF021
:1018C00000000FBCBDE810400BF1010BBBF1010F94
:1018D00008BF5FEA170722BF12F1010211F10101EF
:1018E0004FF0004143F1000300F0004043EA0000E4
:1018F0007047F9D35708D0E746EA064613F1400F80
:101900004FEA16461FDD13F1200FDFBF16430A46CC
:10191000002120335B42BED0C3F1200746EA0646D1
:1019200002FA07F74FEA164646EA0706C3F1200710
:1019300022FA03F201FA07F721FA03F14FF000034C
:1019400042EA0702A7E746EA020646EA06464FEAE7
:10195000164646EA0106BCBF46EA0646360C4FF07C
:1019600000034FF000024FF0000194E72DE9804C96
:101970009A46934670B491E8380007C831EA400CA3
:1019800048BF34EA430C03D5FFF7E6FDFFF780FFBD
:10199000F0BCBDE8008C2DE9804C9A46934670B4AB
:1019A00091E8380007C810F0804F08BF13F0804F4F
:1019B00003D100F005F8FFF76BFFF0BCBDE8008C29
:1019C00020F07F4780EA030023F07F4C07EB0C03F5
:1019D000A3F57C5300F00040A3F1FE0392F0000F4A
:1019E00000F0B38095F0000F00F077802DE90149F9
:1019F0004FEA11404FEA144621EA004800FB06FC7A
:101A000024EA064708FB06F607FB08F800FB07F781
:101A100018EB06484CEB164C4FEA124B18EB0748F4
:101A20004FEA15464CEB174022EA0B4E0BFB06FC27
:101A300025EA06470EFB06F607FB0EFE0BFB07F733
:101A40001EEB064E4CEB164C4FF000061EEB074EFD
:101A50004CEB174B18EB0B0840F1000018EB0E0B8A
:101A600058EB000840F100008F1A4FF000013CBF16
:101A7000C943661B14BFB5EB040C00213CBFC9432E
:101A8000F61B4FEA17444EEA8E0E27EA04454FEA4A
:101A90001C4704FB07622CEA074C05FB07F70CFB0D
:101AA00005F604FB0CFC16EB074642EB174216EB5F
:101AB0000C4642EB1C421BEB060658EB020241416E
:101AC00046EA9E0601D5BDE80189B619524141EBAF
:101AD0000101A3F10103BDE801894FEA14454FEA72
:101AE000114724EA054621EA074C05FB07F406FBEB
:101AF00007F70CFB06F105FB0CFC11EB074144EB6F
:101B000017444FEA124711EB0C4144EB1C4422EA04
:101B1000074C05FB07F206FB07F70CFB06F605FB77
:101B20000CFC16EB074642EB174216EB0C4642EB59
:101B30001C456A1854F1000148BF7047B61952415C
:101B400041EB0101A3F10103704795F0000F37D07D
:101B50004FEA11424FEA144721EA024624EA074CB1
:101B600002FB07F106FB07F70CFB06F402FB0CFC7B
:101B700014EB074441EB17414FEA154714EB0C44B3
:101B800041EB1C4125EA074C02FB07F506FB07F772
:101B90000CFB06F602FB0CFC16EB074645EB174563
:101BA00016EB0C4645EB1C42121951F1000148BFDF
:101BB0007047B619524141EB0101A3F1010370478F
:101BC0004FEA14454FEA114724EA054621EA074C3B
:101BD00005FB07F106FB07F70CFB06F24FF00006CA
:101BE00005FB0CFC12EB074241EB174112EB0C42D8
:101BF00051EB1C4148BF7047921841EB0101A3F122
:101C00000103704700BFFEE77047000010B588B0C1
:101C10004FF4E13001F05AFF04466CB157A0FEF7D3
:101C20005FFB08E000BF20215B4800F03FFC00BFE5
:101C3000C82002F09BF8F5E71F2058A11022134698
:101C4000CDE90021029012018C210A2005F098F9BB
:101C500058A0FEF745FB01F071FF044601F02EFE8F
:101C60002044C4B2012001F0ADFF2044C4B201F011
:101C7000E7FF2044C4B2002001F038FE2044C4B283
:101C80001F2051A110221346CDE90021029012011C
:101C9000A0210A2005F074F950A153A001F026FFFD
:101CA0002044C4B204A801F0A3FE2044C4B2CCB1C5
:101CB0004FA0FEF715FB1F2052A110221346CDE9BD
:101CC000002102901201A0210A2005F059F908E034
:101CD00000BF2021304800F0E9FB00BFC82002F01F
:101CE00045F8F5E71F204DA110221346CDE900214C
:101CF000029012018C210A2005F042F91F204DA10B
:101D000010221346CDE9002102901201B4210A20CD
:101D100005F036F904A805F0C9FA48A149A001F078
:101D20000DFE0446CCB14BA0FEF7DAFA1F2051A1FC
:101D300010221346CDE9002102901201C8210A2089
:101D400005F01EF908E000BF2021134800F0AEFBAB
:101D500000BFC82002F00AF8F5E71F204DA11022AD
:101D60001346CDE9002102901201C8210A2005F096
:101D700007F901F0C5FF08B010BD000041544B2D1C
:101D80004D57383236364420696E69742066616971
:101D90006C6564210D0A0000000C01404553503869
:101DA00032363620696E69742073756363657373A8
:101DB000210000004A6F696E696E6720746F2041D0
:101DC000502E2E2E0D0A00004A6F696E696E672034
:101DD000746F2041502E2E2E2E2E2E007079303111
:101DE0003131323100000000456B6B6F5F303100E4
:101DF0004572726F7220746F206A6F696E20617015
:101E0000210D0A004A6F696E696E6720746F204168
:101E100050206661696C6564210000004A6F696E3C
:101E2000696E6720746F204150207375636365731A
:101E30007321000049503A2000000000383038304B
:101E40000000000034332E3134332E3134312E3142
:101E5000380000004572726F7220746F20636F6EDD
:101E60006E65637420746370207365727665722189
:101E70000D0A0000436F6E6E65637420746F2074EA
:101E800068696E6773626F617264206661696C6510
:101E900064210000436F6E6E65637420746F20745C
:101EA00068696E6773626F617264207375636365DE
:101EB0007373210070B50446B3F5804F13D1D1E997
:101EC000000540EA05108D6840EA05208D69284329
:101ED0008D8940EA054054F82250064E354028438B
:101EE00044F8220003E06FF0704044F82200002024
:101EF00070BD00000000F0CF70B50246086852F8CF
:101F0000200020F001000E6842F8260088680828AA
:101F100001D1402300E00023486818438E68304315
:101F2000CE6830430E6930434E693043CE6930434A
:101F30000E6A30434E6A30438E6A3043CE6A304375
:101F40000E6B40EA060488690443486B0443074D5E
:101F500045F4806545F4E025086852F82000A84360
:101F600020430E6842F82600002070BD7FFB080069
:101F700010B50346D1E9000440EA04108C6840EA39
:101F800004208C8940EA0444088A401E44EA005434
:101F9000087D801E44EA00608C692043541C53F87D
:101FA000244004F040442043541C43F82400002003
:101FB00010BD000070B50446002594F821000228E9
:101FC00003D00420A0630125C1E02068006820F050
:101FD0000E00216808602068006820F00100216878
:101FE00008605C492068884252D95A49783920688B
:101FF000884201D1012047E056496439206888426F
:1020000001D1102040E0534950392068884201D165
:10201000801539E04F493C392068884201D180144D
:1020200032E04C4928392068884202D14FF4803090
:102030002AE0484914392068884202D14FF48010C0
:1020400022E044492068884201D140041CE0424912
:102050002068884201D1012016E03F4914312068F0
:10206000884201D110200FE03B4928312068884286
:1020700001D1801508E038493C312068884201D1FF
:10208000801401E04FF480303349091F086051E0AB
:10209000304978392068884201D1012047E02D4934
:1020A00064392068884201D1102040E02949503924
:1020B0002068884201D1801539E026493C392068E2
:1020C000884201D1801432E02249283920688842B0
:1020D00002D14FF480302AE01E491439206888422A
:1020E00002D14FF4801022E01A492068884201D1C1
:1020F00040041CE018492068884201D1012016E004
:10210000154914312068884201D110200FE012498E
:1021100028312068884201D1801508E00E493C3101
:102120002068884201D1801401E04FF480300949D1
:1021300080394860012084F8210000BF002084F825
:10214000200000BF606B10B12046616B88472846B5
:1021500070BD000080000240080402402DE9F847ED
:10216000024600239C467BE14FF0010808FA03F485
:10217000D1F8008008EA0400A0427DD1DFF8F4A283
:10218000D1F80480A8EB0A09D0453AD014DCB8F1A4
:10219000030F50D009DCB8F1000F31D0B8F1010FB6
:1021A0001CD0B8F1020F49D120E0B8F1110F18D0BE
:1021B000B8F1120F42D11EE0B9F5881F25D006DC18
:1021C000B9F5803F20D0B9F5801F37D11AE0B9F5B5
:1021D000001F18D0B9F5041F30D117E0D1F80CC09A
:1021E0002DE0D1F80C8008F1040C28E0D1F80C8027
:1021F00008F1080C23E0D1F80C8008F10C0C1EE06B
:1022000000BF00BF00BF00BF00BF00BFD1F8088003
:10221000B8F1000F02D14FF0040C0BE0D1F80880A8
:10222000B8F1010F03D14FF0080C146102E04FF038
:10223000080C546103E04FF0000C00E000BF00BF49
:10224000FF2801D8904601E002F104084646FF2825
:1022500002D84FEA830803E0A3F108084FEA880890
:102260004746D6F800804FF00F0909FA07F928EA27
:1022700009080CFA07F900E07AE048EA0908C6F80C
:102280000080D1F8048008F08058B8F1805F6FD1E9
:1022900000BFDFF8E481D8F8188048F00108DFF8C3
:1022A000D891C9F81880C846D8F8188008F00108F5
:1022B000CDF8008000BF00BF4FEAB9384FEA93095C
:1022C00058F829504FEA83784FEA18794FF00F08F1
:1022D00008FA09F825EA0805DFF8A081424502D18D
:1022E0004FF0000824E0DFF89881424502D14FF01A
:1022F00001081DE0DFF88C81424502D14FF0020851
:1023000016E0DFF88481424502D14FF003080FE068
:10231000DFF87881424502D14FF0040808E0DFF889
:102320007081424502D14FF0050801E04FF00608E8
:102330004FEA83794FEA197908FA09F848EA05055E
:10234000DFF850814FEA930948F82950D1F804800A
:1023500008F48038B8F5803F0BD1DFF83C81D8F81D
:10236000008048EA0008DFF83091C9F800800AE0F0
:1023700075E0DFF82481D8F8008028EA0008DFF84B
:102380001891C9F80080D1F8048008F40038B8F535
:10239000003F0ED1DFF8008108F10408D8F8008072
:1023A00048EA0008DFF8F09009F10409C9F8008054
:1023B0000DE0DFF8E48008F10408D8F8008028EA8E
:1023C0000008DFF8D49009F10409C9F80080D1F8B9
:1023D000048008F48018B8F5801F0ED1DFF8B880AB
:1023E00008F10808D8F8008048EA0008DFF8A8904B
:1023F00009F10809C9F800800DE0DFF89C8008F1B8
:102400000808D8F8008028EA0008DFF88C9009F165
:102410000809C9F80080D1F8048008F40018B8F55C
:10242000001F0ED1DFF8708008F10C08D8F800808A
:1024300048EA0008DFF8609009F10C09C9F800804B
:102440000DE0DFF8548008F10C08D8F8008028EA85
:102450000008DFF8449009F10C09C9F800805B1C02
:10246000D1F8008028FA03F8B8F1000F7FF47CAEB1
:10247000BDE8F8870000111000100240000801407C
:10248000000C014000100140001401400018014000
:10249000001C01400800014000040140024693680E
:1024A0000B400BB1012000E00020704710B5C2685E
:1024B00021EA020302EA010443EA0443036110BD76
:1024C0000AB1016101E00B04036170470148006833
:1024D000704700001000002010B50848006840F068
:1024E000100006490860052000F080F80F2000F079
:1024F00007F800F02BF8002010BD0000002002407B
:1025000070B504460E4800784FF47A71B1FBF0F0D4
:102510000C490968B1FBF0F5284600F073FC08B1DE
:10252000012070BD102C07D200222146501E00F061
:102530001EF80548046001E00120F2E70020F0E702
:102540001800002000000020140000207047014601
:102550000846002809DB00F01F0301229A404309C6
:102560009B0003F1E023C3F8002100BF70472DE971
:10257000F05F80460D461646002701F079F90746C0
:1025800039462A46334601F00700C0F1070ABAF17E
:10259000040F02D94FF0040A01E0C0F1070AD14646
:1025A00000F1040ABAF1070F02D24FF0000A01E06D
:1025B000A0F1030AD4464FF0010A0AFA09FAAAF177
:1025C000010A0AEA020A0AFA0CFA4FF0010B0BFAA6
:1025D0000CFBABF1010B0BEA030B4AEA0B0421469F
:1025E000404601F04DF9BDE8F09F000000BF00F04B
:1025F0000702064B19684FF6FF031940044B0B43C3
:1026000043EA0221014B196000BF70470CED00E066
:102610000000FA0570B504460D460CB9012070BDE6
:102620005A48006800F00700A8420ED257480068D8
:1026300020F007002843554908600846006800F06C
:102640000700A84201D00120E9E7207800F002004D
:1026500002281DD1207800F00400042805D14C4840
:10266000406840F4E0604A494860207800F0080083
:10267000082805D14648406840F460504449486005
:102680004348406820F0F000A16808434049486092
:10269000207800F0010078B36068012806D13C483A
:1026A000006800F4003090B90120B8E760680228A3
:1026B00006D13748006800F0007040B90120AEE74D
:1026C0003348006800F0020008B90120A7E730484D
:1026D000406820F00300616808432D494860FFF717
:1026E000F5FE064609E0FFF7F1FE801B41F2883156
:1026F000884202D9032092E707E02548406800F0AD
:102700000C006168B0EB810FEDD12048006800F04B
:102710000700A8420ED91D48006820F00700284392
:102720001A4908600846006800F00700A84201D076
:10273000012074E7207800F00400042807D1144831
:10274000406820F4E060E16808431149486020785F
:1027500000F00800082808D10D48406820F46050B7
:10276000216940EAC1000A49486000F03FF8084981
:102770004968C1F30311074A515CC8400649086023
:1027800006480068FFF7BCFE002048E70020024032
:1027900000100240D4770008000000201400002040
:1027A00001480068704700000000002000B5FFF7F6
:1027B000F7FF04494968C1F30221034A515CC8404C
:1027C00000BD000000100240E477000800B5FFF7EC
:1027D000E7FF04494968C1F3C221034A515CC8407C
:1027E00000BD000000100240E4770008F0B585B09D
:1027F0000FF26C0C9CE8E01001A8A0E8E0101CA50A
:102800002D68009500210022002300240020194D8E
:10281000696801F00C05F5B1042D02D0082D19D11D
:1028200001E0154819E001ADC1F38346AC5D01F448
:10283000803555B10F4D6D68C5F340451DF8052035
:102840000D4D6543B5FBF2F302E00C4D04FB05F3BF
:10285000184602E000BF084800BF00BF05B0F0BD49
:1028600002030405060708090A0B0C0D0E0F1010D1
:10287000010200000010024000127A0000093D0031
:10288000F8B504460CB90120F8BD207800F001002D
:10289000002878D0F848406800F00C0004280CD0DC
:1028A000F548406800F00C00082811D1F248406853
:1028B00000F48030B0F5803F0AD1EF48006800F4A2
:1028C000003000285FD0606800285CD10120DBE781
:1028D00000BF6068B0F5803F06D1E748006840F46B
:1028E0008030E549086028E0606858B9E24800682F
:1028F00020F48030E04908600846006820F4802019
:1029000008601AE06068B0F5A02F0BD1DA480068C3
:1029100040F48020D84908600846006840F48030C0
:1029200008600AE0D448006820F48030D24908608A
:102930000846006820F48020086000BF606888B105
:10294000FFF7C4FD054606E0FFF7C0FD401B642805
:1029500001D9032098E7C848006800F40030002837
:10296000F2D010E0FFF7B2FD054606E0FFF7AEFD3E
:10297000401B642801D9032086E7BF48006800F4A3
:1029800000300028F2D1207800F00200022857D150
:10299000B948406800F00C0050B1B748406800F0FA
:1029A0000C00082818D1B448406800F4803098B969
:1029B000B148006800F0020020B12069012801D070
:1029C000012061E7AC48006820F0F800616940EA46
:1029D000C100A949086033E02069E8B10120A74996
:1029E0000860FFF773FD054606E0FFF76FFD401B2B
:1029F000022801D9032047E79F48006800F0020041
:102A00000028F2D09C48006820F0F800616940EA94
:102A1000C1009949086013E0002098490860FFF759
:102A200055FD054606E0FFF751FD401B022801D980
:102A3000032029E79048006800F002000028F2D146
:102A4000207800F0080008282DD1A069B8B1012035
:102A50008B490860FFF73AFD054606E0FFF736FDB3
:102A6000401B022801D903200EE78348406A00F08A
:102A700002000028F2D0012000F0DAFC13E0002070
:102A80007F490860FFF722FD054606E0FFF71EFDBF
:102A9000401B022801D90320F6E67748406A00F07F
:102AA00002000028F2D1207800F00400042873D13D
:102AB00000277148C06900F0805070B900BF6E48AF
:102AC000C06940F080506C49C8610846C06900F098
:102AD0008050009000BF00BF01276A48006800F4E2
:102AE0008070B0B96748006840F48070654908603C
:102AF000FFF7ECFC054606E0FFF7E8FC401B642806
:102B000001D90320C0E65F48006800F48070002807
:102B1000F2D000BFE068012806D15748006A40F0B3
:102B200001005549086227E0E06858B95248006A38
:102B300020F00100504908620846006A20F00400B5
:102B4000086219E0E06805280BD14B48006A40F0A4
:102B50000400494908620846006A40F00100086222
:102B60000AE04548006A20F001004349086208462F
:102B7000006A20F00400086200BFE068A0B1FFF71F
:102B8000A5FC054609E0FFF7A1FC401B41F2883196
:102B9000884202D9032077E622E03748006A00F035
:102BA00002000028EFD012E0FFF790FC054608E095
:102BB000FFF78CFC401B41F28831884201D9032089
:102BC00062E62D48006A00F002000028F0D1012FD3
:102BD00005D12948C06920F080502749C86100BF4D
:102BE000E069C8B32448406800F00C00082860D0B1
:102BF000E069022848D1002020490866FFF766FCFA
:102C0000054606E0FFF762FC401B022801D90320BD
:102C10003AE61948006800F000700028F2D1206AF6
:102C2000B0F5803F07D11448406820F40030A16817
:102C3000084311494860D4E9080108430E4949682E
:102C400021F4741108430C49486001200B490866BF
:102C5000FFF73CFC054607E03DE0FFF737FC401B73
:102C6000022801D903200FE60348006800F0007035
:102C70000028F2D02FE00000001002400000424285
:102C80008004424200700040002014490866FFF7AB
:102C90001DFC054606E0FFF719FC401B022801D980
:102CA0000320F1E50E48006800F000700028F2D122
:102CB00011E0E069012800D1E6E50948466806F41C
:102CC0008031206A814204D106F47011606A814229
:102CD00001D00120D8E50020D6E5000000004242E6
:102CE0000010024070B504460E4615461CB1A0699E
:102CF000B0F5807F01D1012070BD94F8410028B962
:102D0000002084F84000204600F020F804F108017B
:102D10002068FFF7F1F83146A2682068FFF728F92C
:102D20002946236BD4E90102FFF7C4F8A1682068A3
:102D300050F8210040F00100A268216841F822000B
:102D4000012084F841000020D6E7000010B586B0CD
:102D5000044600BF1E48406940F480701C49486129
:102D60000846406900F48070019000BF00BF00BFBA
:102D70000846806940F0200088610846806900F0BC
:102D80002000019000BF00BF00BF0846806940F0EE
:102D9000400088610846806900F04000019000BF53
:102DA00000BF4CF2037002900220039001200490B7
:102DB0000320059002A90748FFF7D0F94FF680706D
:102DC000029002A90448FFF7C9F906B010BD00003F
:102DD000001002400014014000180140042808D1EE
:102DE0004FF0E021096941F004014FF0E022116148
:102DF00007E04FF0E021096921F004014FF0E022E3
:102E00001161704770B504462546681EB0F1807F99
:102E100001D301200FE0681E4FF0E02148610F212F
:102E20004FF0FF3000F02CFD00204FF0E0218861D2
:102E300007200861002070BD704700002DE9F047B1
:102E40000446206805682068C668206847694FF016
:102E50000008C14605F00F08B8F1000F0AD105F0CF
:102E6000200038B106F0200020B1204600F020FB01
:102E7000BDE8F087B8F1000F71D007F0010018B974
:102E800006F4907000286AD005F0010030B106F415
:102E9000807018B1E06B40F00100E06305F00400C1
:102EA00030B107F0010018B1E06B40F00200E063C0
:102EB00005F0020030B107F0010018B1E06B40F0FE
:102EC0000400E06305F0080048B106F0200010B9E6
:102ED00007F0010018B1E06B40F00800E063E06B20
:102EE00068B305F0200028B106F0200010B120469C
:102EF00000F0DEFA20684069C0F38019E06B00F052
:102F0000080010B9B9F1000F22D0204600F0B0FA45
:102F10002068406900F04000B0B12068406920F0AE
:102F2000400021684861606B50B11848616B48638C
:102F3000606BFFF73FF810B1606B416B88470CE0A6
:102F40002046FFF779FF08E02046FFF775FF04E011
:102F50002046FFF771FF0020E06389E7FFE705F0F7
:102F6000800030B106F0800018B1204600F06EFB02
:102F70007EE705F0400030B106F0400018B1204671
:102F800000F086FA74E700BF72E700005D340008C5
:102F900010B504460CB9012010BDA06900B100E0D5
:102FA00000BF94F8390028B9002084F83800204682
:102FB00000F028F8242084F839002068C06820F444
:102FC00000502168C860204600F0C2FA20680069FD
:102FD00020F49040216808612068406920F02A00B0
:102FE000216848612068C06840F400502168C860CA
:102FF0000020E063202084F8390084F83A000020A3
:10300000CAE7000010B586B00446584920688842D7
:103010004BD100BF00BF5648806940F004005449BE
:1030200088610846806900F00400019000BF00BF7D
:1030300000BF00BF00BF0846806940F004008861FF
:103040000846806900F00400019000BF00BF00BF87
:1030500000BF00BF0846806940F480408861084690
:10306000806900F48040019000BF00BF00BF481598
:10307000029002200390012004900320059002A9F1
:103080003C48FFF76BF84FF48060029000200390FB
:1030900002A93848FFF762F82520FFF758FA032203
:1030A00011462520FFF763FA5DE033492068884226
:1030B00059D100BF00BF2E48806940F008002C495C
:1030C00088610846806900F00800019000BF00BFD9
:1030D00000BF00BF00BF0846806940F0080088615B
:1030E0000846806900F00800019000BF00BF00BFE3
:1030F00000BF00BF0846C06940F48020C861084690
:10310000C06900F48020019000BF00BF00BF081517
:10311000029002200390002004900320059002A951
:103120001648FFF71BF84FF4006002900020039050
:1031300004900320059002A91048FFF70FF8002221
:1031400011462720FFF713FA2720FFF700FA20681F
:10315000C06840F020002168C8602068C06840F066
:1031600010002168C86006B010BD000000380140A2
:10317000001002400008014000480040000C0140DF
:103180002DE9F84F04460E46174699464FF0000ABF
:1031900094F83A0020285DD106B117B90120BDE8A6
:1031A000F88F00BF94F83800012801D10220F6E71B
:1031B000012084F8380000BF0020E063222084F85A
:1031C0003A00FFF783F98246A785E785A068B0F546
:1031D000805F04D1206910B90025B04602E0354671
:1031E0004FF0000800BF002084F8380000BF29E03D
:1031F0005346002220212046CDF8009000F056FAD8
:1032000008B10320CBE745B920684068C0F3080047
:10321000A8F8000008F1020811E0A068B0F5805F8E
:1032200003D0A06828B9206918B9206840682870C0
:1032300004E02068406800F07F0028706D1CE08D7D
:10324000401EE085E08D0028D2D1202084F83A008D
:103250000020A4E70220A2E710B5034693F83A0045
:1032600020282FD101B10AB9012010BD00BF93F869
:103270003800012801D10220F7E7012083F8380047
:1032800000BF99629A85DA850020D863222083F8EE
:103290003A0000BF002083F8380000BF1868C068FB
:1032A00040F480701C68E0601868406940F00100DC
:1032B0001C6860611868C06840F020001C68E0600D
:1032C0000020D2E70220D0E71D4A0168914236D1A2
:1032D0001C49098801F4004189BB1A49098801F495
:1032E000804171B1184909780A2903D00021154A93
:1032F000118024E01349098841F40041114A1180EA
:103300001DE0114909780D2906D10E49098841F4BB
:1033100080410C4A118012E00B490978094A128851
:10332000C2F30D02094B995406490988491C054A04
:10333000118011460988C72901DD002111807047DD
:10334000003801400C0000200E0000202400002066
:103350002DE9F84F04460E46174699464FF0000AED
:1033600094F8390020285AD106B117B90120BDE8D8
:10337000F88F00BF94F83800012801D10220F6E749
:10338000012084F8380000BF0020E063212084F889
:103390003900FFF79BF88246A784E784A068B0F560
:1033A000805F04D1206910B90025B04602E035469F
:1033B0004FF0000800BF002084F8380000BF1BE079
:1033C0005346002280212046CDF8009000F06EF98F
:1033D00008B10320CBE745B9B8F80000C0F30800F6
:1033E0002168486008F1020803E0287821684860F5
:1033F0006D1CE08C401EE084E08C0028E0D1534638
:10340000002240212046CDF8009000F04FF908B18D
:103410000320ACE7202084F839000020A7E7022031
:10342000A5E7704700BFFEE700BFFEE7704700005A
:1034300008B508490968C9084FF47A72B1FBF2F17E
:103440004143009100BF00BF00994A1E009200292D
:10345000F9D108BD000000207047704770B50546DF
:103460006C6A0020E085E0842046FFF7E5FC70BD33
:103470000168C96821F490710268D16001684969E6
:1034800021F0010102685161202180F83A10704753
:1034900010B504462068C06820F040002168C8606C
:1034A000202084F839002046FFF7BBFF002010BD24
:1034B00070B5044694F83A00222847D1A068B0F5C8
:1034C000805F0CD1206950B90025A66A2068406849
:1034D000C0F308003080A06A801CA06215E0A56AD5
:1034E0000026A068B0F5805F03D0A06828B92069E5
:1034F00018B920684068287004E02068406800F02F
:103500007F002870A06A401CA062E08D401E80B23F
:10351000E085C8B92068C06820F020002168C86034
:103520002068C06820F480702168C8602068406905
:1035300020F0010021684861202084F83A002046EC
:10354000FFF7C2FE002070BD0020FCE70220FAE772
:1035500070B504462168096921F44051E2681143BD
:10356000226811612269A1681143626941EA02057A
:103570002168C96841F20C62914329432268D160F5
:103580002168496921F44071A2691143226851619F
:103590002D4A2168914202D1FFF718F901E0FFF7A7
:1035A00005F900EBC00101EB001162689200B1FB6C
:1035B000F2F100EBC00202EB001263689B00B2FB69
:1035C000F3F26423B2FBF3F202EBC20303EB021249
:1035D000A1EB8201322202EB01116422B1FBF2F174
:1035E00001F0F00100EBC00202EB001263689B00E7
:1035F000B2FBF3F26423B2FBF3F201EB021200EB35
:10360000C00101EB001163689B00B1FBF3F100EB1B
:10361000C00303EB00136668B600B3FBF6F3642641
:10362000B3FBF6F303EBC30606EB0313A1EB830135
:10363000322303EB01116423B1FBF3F101F00F011D
:1036400011442268916070BD00380140014691F834
:103650003900212828D18868B0F5805F0BD108692E
:1036600048B90A6A1088C0F308000B685860086AF5
:10367000801C086205E00B6A581C086218780B6809
:103680005860C88C401E80B2C88458B90868C068A9
:1036900020F080000B68D8600868C06840F04000E7
:1036A0000B68D860002070470220FCE72DE9F0414C
:1036B00004460D4617469846069E21E0701CF8B158
:1036C0002EB1FEF703FFA0EB0800B04218D9206826
:1036D000C06820F4D0702168C8602068406920F07C
:1036E000010021684861202084F8390084F83A00FC
:1036F00000BF002084F8380000BF0320BDE8F0813F
:10370000206800682840A84201D1012000E0002084
:10371000B842D3D00020F1E710B50648FFF78EFB82
:1037200000BF012204490348FFF796FD0028F8D1A5
:1037300010BD0000EC0000200E0000201CB53F482A
:1037400000680068C0F3C00090B100BF0020009086
:103750003A48006800680090384800684068009067
:1037600000BF00BF35480068006834480068406802
:10377000324800680068C0F3401020B34FF0FF33B8
:10378000012201A92D48FFF7FBFC2D48B0F80004E9
:10379000C0F30E0040F2FF31884215DA9DF80400B4
:1037A0002749B1F80014C1F30E01254A50541046C0
:1037B000B0F80004401C1146B1F8001460F30E018B
:1037C0001046A0F800141BE01D48B0F800046FF389
:1037D0000E001B49A1F800049DF80400B1F8001484
:1037E000C1F30E01164A50541046B0F80004401CB4
:1037F0001146B1F8001460F30E011046A0F8001451
:103800000E4800680068C0F30010B0B10C48B0F872
:10381000000420F4004000F500400949A1F800042C
:1038200000BF002000900548006800680090034831
:1038300000684068009000BF00BF1CBD84010020EC
:10384000C401002000BFFEE7490050EAC12018BFB4
:1038500004204A0D18BF40F0010040F2FF72B2EBA5
:10386000515F08BF40F00200012808BF05207047E3
:1038700002480068C0F30220704700000CED00E031
:1038800010B5002804DB0A07130E054A135406E09E
:103890000A07140E034A00F00F031B1FD45410BD77
:1038A00000E400E018ED00E030380A2801D20120E1
:1038B00070470020704700BF7047000070B50025BA
:1038C0000BE04FF4FA7207A107A000F04FF904468D
:1038D0000CB9002070BD681CC5B20A2DF1DB0120B7
:1038E000F8E700004F4B00004154000070B505465A
:1038F00015B1012D10D107E04FF4FA720AA10BA007
:1039000000F034F9044609E04FF4FA7206A109A068
:1039100000F02CF9044601E0032070BD00BF0CB993
:103920000020FAE70120F8E74F4B000041544530F2
:1039300000000000415445310000000070B590B017
:1039400004460D462B46224608A16846FCF7D4FCE7
:1039500041F288320CA1684600F008F9064616B913
:10396000002010B070BD0120FBE7000041542B4344
:10397000495053544152543D22544350222C222545
:1039800073222C2573000000434F4E4E45435400D4
:1039900010B54FF4FA7209A109A000F0E7F8044647
:1039A0004FF4FA720AA10BA000F0E0F82044C4B270
:1039B0000CB9002010BD0120FCE700004F4B0000B7
:1039C00041542B4349504D4F44453D3100000000C8
:1039D0003E00000041542B43495053454E440000E3
:1039E00010B502A000F058F910BD00002B2B2B00E1
:1039F0002DE9F04106464FF4FA720FA10FA000F036
:103A0000B5F8074617B10120BDE8F08100F062F972
:103A100080460DA1FCF7FAFD04460BA1601CFCF7E3
:103A2000F5FD054600202870621C08A13046FCF711
:103A300063FC0020E8E700004F4B000041542B439B
:103A40004946535200000000220000002573000088
:103A500000B585B000BF00BF0D48806940F004008C
:103A60000B4988610846806900F00400009000BF9F
:103A700000BF00BF102001900120029000200390A1
:103A80000320049001A90348FEF768FB05B000BDC0
:103A9000001002400008014010B500BF00221021B4
:103AA0000948FEF70DFD00BF642000F05FF900BF7C
:103AB000012210210448FEF703FD00BF4FF4FA7005
:103AC00000F054F910BD00000008014010B5044694
:103AD000FFF7BEFFFFF7E0FF204600F0C5F8FFF755
:103AE000EDFE08B1012010BD0020FCE770B590B0DC
:103AF00004460D462B46224608A16846FCF7FCFB0F
:103B000042F210720AA1684600F030F8064616B973
:103B1000002010B070BD0120FBE7000041542B4392
:103B2000574A41503D222573222C22257322000042
:103B30005749464920474F542049500010B540F698
:103B4000B83205A106A000F011F804460CB9002017
:103B500010BD0120FCE7000072656164790000007F
:103B600041542B524553544F524500002DE9F0412A
:103B700005460E461446002700F0C2F829460FA05D
:103B800000F08AF806B114B90020BDE8F08110E019
:103B900000F0A0F8074647B131463846FCF736FD3D
:103BA00008B10020F1E700F0ABF8641E012000F03E
:103BB000DDF8002CECD10220E7E7000025730D0AA8
:103BC0000000000070B50546012D04D0022D0AD07A
:103BD000032D18D10FE04FF4FA720FA10FA0FFF7D9
:103BE000C5FF044611E04FF4FA720BA10EA0FFF7D7
:103BF000BDFF044609E04FF4FA7207A10DA0FFF7DC
:103C0000B5FF044601E0032070BD00BF0CB90020E1
:103C1000FAE70120F8E700004F4B000041542B4326
:103C2000574D4F44453D310041542B43574D4F4470
:103C3000453D320041542B43574D4F44453D3300E1
:103C400010B54FF4FA7205A105A0FFF78FFF0446E7
:103C50000CB9002010BD0120FCE700004F4B000014
:103C600041542B525354000010B5044608480949EA
:103C700008600846446000218160C16001610C2138
:103C8000416100218161C161FFF782F910BD00002F
:103C900000480040840100200FB438B505A800900A
:103CA0000A48009A0499FCF709FB00200090074895
:103CB000FCF7BEFC84B24FF0FF33224603490448B0
:103CC000FFF746FB38BC5DF814FB0000C60500207A
:103CD000840100200948B0F800040121B1EBD03F75
:103CE00009D100200549B1F80014C1F30E01034ABF
:103CF0005054104670470020FCE70000C40100202B
:103D00000748B0F800046FF30E000549A1F800045D
:103D10000846B0F8000420F40040A1F80004704701
:103D2000C401002070B50446207830B9FFF730FE9A
:103D3000054635B90120207003E0FFF751FE002051
:103D4000207070BD10B5044600204FF0E0210861DE
:103D5000FFF744F82046E11704EB5171C1F3CF019E
:103D6000014A118010BD00000400002070B5044617
:103D70004FF47A7094FBF0F594FBF0F100FB1146E0
:103D800003E0074800F00EF86D1E002DF9D12EB1AA
:103D90004FF47A7106FB01F000F004F870BD0000EA
:103DA00040420F000146114A12884A434FF0E02377
:103DB0005A6100229A611A46126942F001021A61A0
:103DC00000BF4FF0E022106900F001021AB100F4C8
:103DD0008032002AF5D04FF0E022126922F0010271
:103DE0004FF0E0231A6100229A617047040000201E
:103DF00070B50024002504E0601CC4B20120FFF768
:103E0000D1FF4FF400610F48FEF748FB08B1642C66
:103E1000F2DB642C01DB012511E0002404E0601CCE
:103E2000C4B20120FFF7BEFF4FF400610548FEF762
:103E300035FB08B9642CF2DB642C00DB0125284635
:103E400070BD00000020014000B585B000BF00BF7C
:103E50000F48806940F480700D4988610846806988
:103E600000F48070009000BF00BF00BFC814019034
:103E700011200290012003900320049001A905481D
:103E8000FEF76CF900F072F8FFF7B2FF05B000BD65
:103E9000001002400020014010B5002404E0601C26
:103EA000C4B20120FFF77EFF4FF400611048FEF717
:103EB000F5FA08B1642CF2DB002404E0601CC4B203
:103EC0000120FFF76FFF4FF400610948FEF7E6FAA3
:103ED00008B9642CF2DB2820FFF764FF4FF400617F
:103EE0000348FEF7DBFA08B1012010BD0020FCE713
:103EF0000020014070B50024002506E06006040E95
:103F0000FFF7CAFF0443681CC5B2082DF6DB204644
:103F100070BD7CB505460E4600F028F8FFF768FF37
:103F2000F8B9002405E0FFF7E5FF0DF80400601C78
:103F3000C4B2052CF7DB9DF800009DF80110084481
:103F40009DF8021008449DF8031008449DF80410E1
:103F5000884208D19DF8000030709DF8020028705A
:103F600001E001207CBD0020FCE7000010B500BF8F
:103F700000224FF400610948FEF7A2FA00BF1420A6
:103F8000FFF7F4FE00BF0122D1020448FEF798FAC1
:103F900000BF1E20FFF706FF10BD000000200140FB
:103FA00000BF054A126802F04002002AF9D0C2B2EE
:103FB000014B1B1D1A6070470038014001B5B4B0B9
:103FC000002033909DF8D00010B934A8FFF7AAFE66
:103FD00014A016A319A21F49009001A8FCF78CF9A0
:103FE00001A8FFF759FE4FF4FA70FFF7BFFE33A99F
:103FF0009DF8D00003F052FA9DF8D000012802D1BC
:1040000034A8FFF78FFE9DF8CC00312802D10120A3
:1040100035B000BD9DF8CC00302801D10020F7E775
:1040200000BFF5E7383038300000000034332E315F
:1040300034332E3134312E313800000033305365A3
:104040006E385A62656345335058727853547167BD
:10405000000000006CA8000813B584B004469DF869
:10406000140010B905A8FFF75DFE6420FFF77EFE7F
:104070002046FFF711FEC820FFF778FE4FF4784086
:1040800012A110221346CDE9002102901201DC2179
:104090000A2002F075FF4FF47A70FFF767FE4FF6C3
:1040A000FF700AA110221346CDE9002102901201EF
:1040B000DC210A2002F064FF9DF81400012802D1DF
:1040C00005A8FFF72FFE06B010BD0000485454505D
:1040D00020504F5354207375636365737321202000
:1040E0002073656E64696E672E2E2E2E2E000000E2
:1040F0001CB50446694601A8FFF70BFF9DF80000B8
:1041000020701CBD00B585B000BF00BF2848806985
:1041100040F04000264988610846806900F0400070
:10412000009000BF00BF00BF00BF00BF084680690D
:1041300040F0400088610846806900F0400000902F
:1041400000BF00BF00BF00BF00BF0846806940F04D
:10415000040088610846806900F00400009000BFF8
:1041600000BF00BF102001900020029001200390AA
:104170000320049001A90F48FDF7F0FF08200190EB
:1041800000200290012003900320049001A9094817
:10419000FDF7E4FF0120019000200290022003902F
:1041A0000320049001A90448FDF7D8FF05B000BD25
:1041B00000100240001801400008014070B504469C
:1041C000002609480588408845430021084602F03A
:1041D0005BFD02F04DFF00BF02E004480480761C46
:1041E000AE42FAD370BD0000740100200008006CDC
:1041F00010B5044649488471002C45D1F020474948
:1042000008804FF4A07048800846808845F210511D
:10421000884210D14FF43050404908814FF4285063
:1042200048814FF42C5088814FF4F07008804FF48F
:10423000487048801AE03948808841F66311884206
:104240000DD12C20354908812B2048812A208881D6
:104250004FF4F07008804FF44870488006E02C203E
:104260002E4908812A2048812B2088812B4880886C
:1042700045F2103188424CD14FF4A0702749088094
:104280004FF4F070488044E04FF4A0702349088058
:10429000F02048800846808845F21051884210D1AD
:1042A0004FF430501D4908814FF4285048814FF495
:1042B0002C5088814FF4487008804FF4F07048808B
:1042C0001AE01648808841F6631188420DD12C20EF
:1042D000124908812A2048812B2088814FF4487098
:1042E00008804FF4F070488006E02C200B490881CC
:1042F0002A2048812B2088810848808845F2103187
:10430000884206D14FF4F070044908804FF4A07041
:104310004880002002F0A0FB10BD000074010020C6
:1043200070B505460E4614463146284602F0ACFCF0
:1043300002F09EFE01490C8070BD00000008006C78
:1043400010B5CF2002F088FE002002F079FEC120D7
:1043500002F076FE302002F073FEED2002F07CFECB
:10436000642002F06DFE032002F06AFE122002F0CB
:1043700067FE812002F064FEE82002F06DFE8520D9
:1043800002F05EFE102002F05BFE7A2002F058FE82
:10439000CB2002F061FE392002F052FE2C2002F008
:1043A0004FFE002002F04CFE342002F049FE0220B5
:1043B00002F046FEF72002F04FFE202002F040FE01
:1043C000EA2002F049FE002002F03AFE002002F04E
:1043D00037FEC02002F040FE1B2002F031FEC1205B
:1043E00002F03AFE012002F02BFEC52002F034FE5E
:1043F000302002F025FE302002F022FEC72002F01D
:104400002BFEB72002F01CFE362002F025FE4820CD
:1044100002F016FE3A2002F01FFE552002F010FEB8
:10442000B12002F019FE002002F00AFE1A2002F06C
:1044300007FEB62002F010FE0A2002F001FEA220C4
:1044400002F0FEFDF22002F007FE002002F0F8FD6F
:10445000262002F001FE012002F0F2FDE02002F031
:10446000FBFD0F2002F0ECFD2A2002F0E9FD2820E0
:1044700002F0E6FD082002F0E3FD0E2002F0E0FD70
:10448000082002F0DDFD542002F0DAFDA92002F040
:10449000D7FD432002F0D4FD0A2002F0D1FD0F2009
:1044A00002F0CEFD002002F0CBFD002002F0C8FD9E
:1044B000002002F0C5FD002002F0C2FDE12002F064
:1044C000CBFD002002F0BCFD152002F0B9FD172045
:1044D00002F0B6FD072002F0B3FD112002F0B0FD9E
:1044E000062002F0ADFD2B2002F0AAFD562002F0BE
:1044F000A7FD3C2002F0A4FD052002F0A1FD102044
:1045000002F09EFD0F2002F09BFD3F2002F098FD7F
:104510003F2002F095FD0F2002F092FD2B2002F0CB
:104520009BFD002002F08CFD002002F089FD01209F
:1045300002F086FD3F2002F083FD2A2002F08CFD70
:10454000002002F07DFD002002F07AFD002002F044
:1045500077FDEF2002F074FD112002F07DFD782040
:10456000FFF704FC292002F077FD10BD10B5ED2007
:1045700002F072FD012002F063FDFE2002F060FDFA
:10458000EE2002F069FDDE2002F05AFD212002F04B
:1045900057FDF12002F060FD012002F051FDDF2007
:1045A00002F05AFD102002F04BFDC42002F054FD31
:1045B0008F2002F045FDC62002F04EFD002002F0E3
:1045C0003FFDE22002F03CFDE22002F039FDE22056
:1045D00002F036FDBF2002F03FFDAA2002F030FDC0
:1045E000B02002F039FD0D2002F02AFD002002F07B
:1045F00027FD0D2002F024FD002002F021FD1120F6
:1046000002F01EFD002002F01BFD192002F018FD33
:10461000002002F015FD212002F012FD002002F022
:104620000FFD2D2002F00CFD002002F009FD3D20C1
:1046300002F006FD002002F003FD5D2002F000FD07
:10464000002002F0FDFC5D2002F0FAFC002002F0E8
:10465000F7FCB12002F000FD802002F0F1FC002008
:1046600002F0EEFC8B2002F0EBFC002002F0E8FCF4
:10467000962002F0E5FC002002F0E2FCB22002F0FD
:10468000EBFC002002F0DCFC002002F0D9FC022050
:1046900002F0D6FC002002F0D3FC032002F0D0FC94
:1046A000002002F0CDFCB32002F0D6FC002002F086
:1046B000C7FC002002F0C4FC002002F0C1FC002076
:1046C00002F0BEFC002002F0BBFC002002F0B8FCAF
:1046D000002002F0B5FC002002F0B2FC002002F045
:1046E000AFFC002002F0ACFC002002F0A9FC00208E
:1046F00002F0A6FC002002F0A3FC002002F0A0FCC7
:10470000002002F09DFC002002F09AFC002002F044
:1047100097FC002002F094FC002002F091FC0020A5
:1047200002F08EFC002002F08BFC002002F088FCDE
:10473000002002F085FC002002F082FCB42002F090
:104740008BFC8B2002F07CFC002002F079FC962090
:1047500002F076FC002002F073FCA12002F070FC55
:10476000002002F06DFCB52002F076FC022002F081
:1047700067FC002002F064FC032002F061FC0020D2
:1047800002F05EFC042002F05BFC002002F058FC0A
:10479000B62002F061FC002002F052FC002002F082
:1047A0004FFCB72002F058FC002002F049FC00202A
:1047B00002F046FC3F2002F043FC002002F040FCE7
:1047C0005E2002F03DFC002002F03AFC642002F082
:1047D00037FC002002F034FC8C2002F031FC002079
:1047E00002F02EFCAC2002F02BFC002002F028FC92
:1047F000DC2002F025FC002002F022FC702002F0F8
:104800001FFC002002F01CFC902002F019FC00208C
:1048100002F016FCEB2002F013FC002002F010FC6A
:10482000DC2002F00DFC002002F00AFCB82002F0AF
:1048300013FC002002F004FC002002F001FC002028
:1048400002F0FEFB002002F0FBFB002002F0F8FB70
:10485000002002F0F5FB002002F0F2FB002002F045
:10486000EFFBBA2002F0F8FB242002F0E9FB002065
:1048700002F0E6FB002002F0E3FB002002F0E0FB88
:10488000C12002F0E9FB202002F0DAFB002002F058
:10489000D7FB542002F0D4FB002002F0D1FBFF2014
:1048A00002F0CEFB002002F0CBFBC22002F0D4FBD2
:1048B0000A2002F0C5FB002002F0C2FB042002F037
:1048C000BFFB002002F0BCFBC32002F0C5FB3C2074
:1048D00002F0B6FB002002F0B3FB3A2002F0B0FB7E
:1048E000002002F0ADFB392002F0AAFB002002F00C
:1048F000A7FB372002F0A4FB002002F0A1FB3C2024
:1049000002F09EFB002002F09BFB362002F098FB99
:10491000002002F095FB322002F092FB002002F012
:104920008FFB2F2002F08CFB002002F089FB2C2053
:1049300002F086FB002002F083FB292002F080FBBE
:10494000002002F07DFB262002F07AFB002002F01E
:1049500077FB242002F074FB002002F071FB24207E
:1049600002F06EFB002002F06BFB232002F068FBDC
:10497000002002F065FB3C2002F062FB002002F008
:104980005FFB362002F05CFB002002F059FB322076
:1049900002F056FB002002F053FB2F2002F050FBE8
:1049A000002002F04DFB2C2002F04AFB002002F018
:1049B00047FB292002F044FB002002F041FB2620A7
:1049C00002F03EFB002002F03BFB242002F038FB0B
:1049D000002002F035FB242002F032FB002002F020
:1049E0002FFB232002F02CFB002002F029FBC42027
:1049F00002F032FB622002F023FB002002F020FBD9
:104A0000052002F01DFB002002F01AFB842002F0BA
:104A100017FB002002F014FBF02002F011FB002035
:104A200002F00EFB182002F00BFB002002F008FB46
:104A3000A42002F005FB002002F002FB182002F087
:104A4000FFFA002002F0FCFA502002F0F9FA0020F0
:104A500002F0F6FA0C2002F0F3FA002002F0F0FA6D
:104A6000172002F0EDFA002002F0EAFA952002F099
:104A7000E7FA002002F0E4FAF32002F0E1FA002065
:104A800002F0DEFAE62002F0DBFA002002F0D8FAAB
:104A9000C52002F0E1FA322002F0D2FA002002F042
:104AA000CFFA442002F0CCFA002002F0C9FA6520C7
:104AB00002F0C6FA002002F0C3FA762002F0C0FA33
:104AC000002002F0BDFA882002F0BAFA002002F0BD
:104AD000B7FAC62002F0C0FA202002F0B1FA002096
:104AE00002F0AEFA172002F0ABFA002002F0A8FAAA
:104AF000012002F0A5FA002002F0A2FAC72002F07D
:104B0000ABFA002002F09CFA002002F099FA002093
:104B100002F096FA002002F093FAC82002F09CFA04
:104B2000002002F08DFA002002F08AFA002002F044
:104B300087FA002002F084FAC92002F08DFA0020E2
:104B400002F07EFA002002F07BFA002002F078FAF0
:104B5000002002F075FA002002F072FA002002F044
:104B60006FFA002002F06CFA002002F069FA0020CF
:104B700002F066FA002002F063FA002002F060FA08
:104B8000002002F05DFA002002F05AFA002002F044
:104B900057FA002002F054FA002002F051FAE02007
:104BA00002F05AFA162002F04BFA002002F048FAFE
:104BB0001C2002F045FA002002F042FA212002F007
:104BC0003FFA002002F03CFA362002F039FA0020C9
:104BD00002F036FA462002F033FA002002F030FAF2
:104BE000522002F02DFA002002F02AFA642002F08E
:104BF00027FA002002F024FA7A2002F021FA00209D
:104C000002F01EFA8B2002F01BFA002002F018FAC4
:104C1000992002F015FA002002F012FAA82002F002
:104C20000FFA002002F00CFAB92002F009FA002075
:104C300002F006FAC42002F003FA002002F000FAA3
:104C4000CA2002F0FDF9002002F0FAF9D22002F0A9
:104C5000F7F9002002F0F4F9D92002F0F1F9002070
:104C600002F0EEF9E02002F0EBF9002002F0E8F9A2
:104C7000F32002F0E5F9002002F0E2F9E12002F071
:104C8000EBF9162002F0DCF9002002F0D9F91C2023
:104C900002F0D6F9002002F0D3F9222002F0D0F978
:104CA000002002F0CDF9362002F0CAF9002002F00F
:104CB000C7F9452002F0C4F9002002F0C1F95220E2
:104CC00002F0BEF9002002F0BBF9642002F0B8F94E
:104CD000002002F0B5F97A2002F0B2F9002002F0CB
:104CE000AFF98B2002F0ACF9002002F0A9F999206D
:104CF00002F0A6F9002002F0A3F9A82002F0A0F922
:104D0000002002F09DF9B92002F09AF9002002F08B
:104D100097F9C42002F094F9002002F091F9CA201A
:104D200002F08EF9002002F08BF9D22002F088F90F
:104D3000002002F085F9D82002F082F9002002F06C
:104D40007FF9E02002F07CF9002002F079F9F320ED
:104D500002F076F9002002F073F9E22002F07CF90B
:104D6000052002F06DF9002002F06AF90B2002F034
:104D700067F9002002F064F91B2002F061F90020BD
:104D800002F05EF9342002F05BF9002002F058F9DD
:104D9000442002F055F9002002F052F94F2002F0B1
:104DA0004FF9002002F04CF9612002F049F900208F
:104DB00002F046F9792002F043F9002002F040F9B0
:104DC000882002F03DF9002002F03AF9972002F025
:104DD00037F9002002F034F9A62002F031F9002062
:104DE00002F02EF9B72002F02BF9002002F028F98A
:104DF000C22002F025F9002002F022F9C72002F0BB
:104E00001FF9002002F01CF9D12002F019F900204E
:104E100002F016F9D62002F013F9002002F010F982
:104E2000DD2002F00DF9002002F00AF9F32002F073
:104E300007F9002002F004F9E32002F00DF9052043
:104E400002F0FEF8002002F0FBF80A2002F0F8F869
:104E5000002002F0F5F81C2002F0F2F8002002F029
:104E6000EFF8332002F0ECF8002002F0E9F84420DB
:104E700002F0E6F8002002F0E3F8502002F0E0F83B
:104E8000002002F0DDF8622002F0DAF8002002F0E3
:104E9000D7F8782002F0D4F8002002F0D1F888206A
:104EA00002F0CEF8002002F0CBF8972002F0C8F80C
:104EB000002002F0C5F8A62002F0C2F8002002F09F
:104EC000BFF8B72002F0BCF8002002F0B9F8C22009
:104ED00002F0B6F8002002F0B3F8C72002F0B0F8F4
:104EE000002002F0ADF8D12002F0AAF8002002F074
:104EF000A7F8D52002F0A4F8002002F0A1F8DD20E8
:104F000002F09EF8002002F09BF8F32002F098F8DF
:104F1000002002F095F8E42002F09EF8012002F053
:104F20008FF8002002F08CF8012002F089F80020B0
:104F300002F086F8022002F083F8002002F080F8E8
:104F40002A2002F07DF8002002F07AF83C2002F0DE
:104F500077F8002002F074F84B2002F071F800207E
:104F600002F06EF85D2002F06BF8002002F068F8A5
:104F7000742002F065F8002002F062F8842002F04C
:104F80005FF8002002F05CF8932002F059F800204E
:104F900002F056F8A22002F053F8002002F050F878
:104FA000B32002F04DF8002002F04AF8BE2002F0D3
:104FB00047F8002002F044F8C42002F041F8002035
:104FC00002F03EF8CD2002F03BF8002002F038F865
:104FD000D32002F035F8002002F032F8DD2002F094
:104FE0002FF8002002F02CF8F32002F029F800201E
:104FF00002F026F8E52002F02FF8002002F020F859
:10500000002002F01DF8002002F01AF8002002F043
:1050100017F8022002F014F8002002F011F82920FD
:1050200002F00EF8002002F00BF83C2002F008F825
:10503000002002F005F84B2002F002F8002001F0F9
:10504000FFFF5D2001F0FCFF002001F0F9FF74205C
:1050500001F0F6FF002001F0F3FF842001F0F0FFE3
:10506000002001F0EDFF932001F0EAFF002001F0A5
:10507000E7FFA22001F0E4FF002001F0E1FFB320F0
:1050800001F0DEFF002001F0DBFFBE2001F0D8FFC1
:10509000002001F0D5FFC42001F0D2FF002001F074
:1050A000CFFFCD2001F0CCFF002001F0C9FFD320BD
:1050B00001F0C6FF002001F0C3FFDC2001F0C0FFBB
:1050C000002001F0BDFFF32001F0BAFF002001F045
:1050D000B7FFE62001F0C0FF112001F0B1FF002072
:1050E00001F0AEFF342001F0ABFF002001F0A8FF7B
:1050F000562001F0A5FF002001F0A2FF762001F06C
:105100009FFF002001F09CFF772001F099FF002015
:1051100001F096FF662001F093FF002001F090FF60
:10512000882001F08DFF002001F08AFF992001F016
:1051300087FF002001F084FFBB2001F081FF0020E9
:1051400001F07EFF992001F07BFF002001F078FF45
:10515000662001F075FF002001F072FF552001F07C
:105160006FFF002001F06CFF552001F069FF002067
:1051700001F066FF452001F063FF002001F060FFB1
:10518000432001F05DFF002001F05AFF442001F0B0
:1051900057FF002001F054FFE72001F05DFF3220AF
:1051A00001F04EFF002001F04BFF552001F048FFB9
:1051B000002001F045FF762001F042FF002001F0C1
:1051C0003FFF662001F03CFF002001F039FF67201F
:1051D00001F036FF002001F033FF672001F030FFBF
:1051E000002001F02DFF872001F02AFF002001F0B0
:1051F00027FF992001F024FF002001F021FFBB20B0
:1052000001F01EFF002001F01BFF992001F018FFA4
:10521000002001F015FF772001F012FF002001F0BF
:105220000FFF442001F00CFF002001F009FF562081
:1052300001F006FF002001F003FF232001F000FF32
:10524000002001F0FDFE332001F0FAFE002001F005
:10525000F7FE452001F0F4FE002001F0F1FEE82009
:1052600001F0FAFE002001F0EBFE002001F0E8FE64
:10527000992001F0E5FE002001F0E2FE872001F018
:10528000DFFE002001F0DCFE882001F0D9FE0020C6
:1052900001F0D6FE772001F0D3FE002001F0D0FE11
:1052A000662001F0CDFE002001F0CAFE882001F04A
:1052B000C7FE002001F0C4FEAA2001F0C1FE0020BC
:1052C00001F0BEFEBB2001F0BBFE002001F0B8FEE5
:1052D000992001F0B5FE002001F0B2FE662001F039
:1052E000AFFE002001F0ACFE552001F0A9FE002029
:1052F00001F0A6FE552001F0A3FE002001F0A0FE63
:10530000442001F09DFE002001F09AFE442001F0AF
:1053100097FE002001F094FE552001F091FE002040
:1053200001F08EFEE92001F097FEAA2001F088FE30
:10533000002001F085FE002001F082FE002001F037
:105340007FFE002001F088FEAA2001F079FECF2028
:1053500001F082FE002001F073FE002001F070FEDB
:10536000002001F06DFE002001F06AFE002001F037
:1053700067FE002001F064FE002001F061FE0020C5
:1053800001F05EFE002001F05BFE002001F058FEFF
:10539000002001F055FE002001F052FE002001F037
:1053A0004FFE002001F04CFE002001F049FE0020DD
:1053B00001F046FE002001F043FEF02001F04CFE1B
:1053C000002001F03DFE502001F03AFE002001F0E7
:1053D00037FE002001F034FE002001F031FEF32002
:1053E00001F03AFE002001F02BFEF92001F034FE1E
:1053F000062001F025FE102001F022FE292001F0F8
:105400001FFE002001F01CFE3A2001F025FE552071
:1054100001F016FE112001F01FFE6420FEF7A6FC2D
:10542000292001F019FE352001F016FE002001F0C0
:1054300007FE512001F010FEFF2001F001FE532075
:1054400001F00AFE2C2001F0FBFD552001F004FEC6
:10545000822001F0F5FD2C2001F0FEFD10BD10B5FD
:1054600055214FF4704001F00DFEAA214FF20100CA
:1054700001F008FE52214FF2020001F003FE082164
:105480004FF2030001F0FEFD01214FF2040001F094
:10549000F9FD0D214FF4304001F0F4FD0D214BF2E8
:1054A000010001F0EFFD0D214BF2020001F0EAFDD9
:1054B00034214FF4364001F0E5FD34214BF2016018
:1054C00001F0E0FD34214BF2026001F0DBFD0D2123
:1054D0004FF4314001F0D6FD0D214BF2011001F0E7
:1054E000D1FD0D214BF2021001F0CCFD34214FF41F
:1054F000374001F0C7FD34214BF2017001F0C2FDCD
:1055000034214BF2027001F0BDFD00214FF4324016
:1055100001F0B8FD00214BF2012001F0B3FD0021A4
:105520004BF2022001F0AEFD24214FF4384001F08F
:10553000A9FD24214BF6010001F0A4FD24214BF626
:10554000020001F09FFD01214FF43F4001F09AFD60
:105550000F214FF4334001F095FD0F214BF2013044
:1055600001F090FD0F214BF2023001F08BFD342150
:105570004FF4394001F086FD34214BF6011001F063
:1055800081FD34214BF6021001F07CFD08214FF41F
:10559000354001F077FD08214BF2015001F072FD1A
:1055A00008214BF2025001F06DFD03214FF44240FF
:1055B00001F068FD24214FF43A4001F063FD2421FD
:1055C0004BF6012001F05EFD24214BF6022001F094
:1055D00059FD00214FF43C4001F054FD78214BF679
:1055E000014001F04FFD00214BF6024001F04AFD61
:1055F00000214FF43D4001F045FD78214BF601506C
:1056000001F040FD00214BF6025001F03BFD00216E
:105610004FF43E4001F036FD64214BF6016001F08D
:1056200031FD00214FF4514001F02CFD33214DF2AA
:10563000011001F027FD00214DF2021001F022FDC2
:1056400034214DF2031001F01DFD00214DF2041034
:1056500001F018FD3A214DF2051001F013FD002173
:105660004DF2061001F00EFD4A214DF2071001F037
:1056700009FD00214DF2081001F004FD5C214DF2FE
:10568000091001F0FFFC00214DF20A1001F0FAFCB4
:1056900081214DF20B1001F0F5FC00214DF20C10B0
:1056A00001F0F0FCA6214DF20D1001F0EBFC002101
:1056B0004DF20E1001F0E6FCE5214DF20F1001F065
:1056C000E1FC01214DF2101001F0DCFC13214DF240
:1056D000111001F0D7FC01214DF2121001F0D2FCA3
:1056E00054214DF2131001F0CDFC01214DF21410A4
:1056F00001F0C8FC82214DF2151001F0C3FC01211C
:105700004DF2161001F0BEFCCA214DF2171001F047
:10571000B9FC02214DF2181001F0B4FC00214DF249
:10572000191001F0AFFC02214DF21A1001F0AAFC91
:1057300001214DF21B1001F0A5FC02214DF21C10BD
:1057400001F0A0FC34214DF21D1001F09BFC022160
:105750004DF21E1001F096FC67214DF21F1001F072
:1057600091FC02214DF2201001F08CFC84214DF2BD
:10577000211001F087FC02214DF2221001F082FC81
:10578000A4214DF2231001F07DFC02214DF22410E2
:1057900001F078FCB7214DF2251001F073FC0221D5
:1057A0004DF2261001F06EFCCF214DF2271001F0D2
:1057B00069FC02214DF2281001F064FCDE214DF25B
:1057C000291001F05FFC02214DF22A1001F05AFC71
:1057D000F2214DF22B1001F055FC02214DF22C105C
:1057E00001F050FCFE214DF22D1001F04BFC032185
:1057F0004DF22E1001F046FC10214DF22F1001F059
:1058000041FC03214DF2301001F03CFC33214DF2FC
:10581000311001F037FC03214DF2321001F032FC5F
:105820006D214DF2331001F02DFC00214FF4524058
:1058300001F028FC33214DF2012001F023FC00216E
:105840004DF2022001F01EFC34214DF2032001F044
:1058500019FC00214DF2042001F014FC3A214DF214
:10586000052001F00FFC00214DF2062001F00AFC9A
:105870004A214DF2072001F005FC00214DF20820DD
:1058800001F000FC5C214DF2092001F0FBFB00213E
:105890004DF20A2001F0F6FB81214DF20B2001F0C0
:1058A000F1FB00214DF20C2001F0ECFBA6214DF2A2
:1058B0000D2001F0E7FB00214DF20E2001F0E2FB8C
:1058C000E5214DF20F2001F0DDFB01214DF210200A
:1058D00001F0D8FB13214DF2112001F0D3FB01217F
:1058E0004DF2122001F0CEFB54214DF2132001F0B5
:1058F000C9FB01214DF2142001F0C4FB82214DF2BD
:10590000152001F0BFFB01214DF2162001F0BAFB7A
:10591000CA214DF2172001F0B5FB02214DF21820EB
:1059200001F0B0FB00214DF2192001F0ABFB022188
:105930004DF21A2001F0A6FB01214DF21B2001F0CF
:10594000A1FB02214DF21C2001F09CFB34214DF201
:105950001D2001F097FB02214DF21E2001F092FB69
:1059600067214DF21F2001F08DFB02214DF2202016
:1059700001F088FB84214DF2212001F083FB0221FC
:105980004DF2222001F07EFBA4214DF2232001F0F4
:1059900079FB02214DF2242001F074FBB7214DF276
:1059A000252001F06FFB02214DF2262001F06AFB59
:1059B000CF214DF2272001F065FB02214DF2282076
:1059C00001F060FBDE214DF2292001F05BFB02219A
:1059D0004DF22A2001F056FBF2214DF22B2001F06E
:1059E00051FB02214DF22C2001F04CFBFE214DF227
:1059F0002D2001F047FB03214DF22E2001F042FB48
:105A000010214DF22F2001F03DFB03214DF23020FB
:105A100001F038FB33214DF2312001F033FB03213B
:105A20004DF2322001F02EFB6D214DF2332001F0BA
:105A300029FB00214FF4534001F024FB33214DF2A8
:105A4000013001F01FFB00214DF2023001F01AFB82
:105A500034214DF2033001F015FB00214DF20430EA
:105A600001F010FB3A214DF2053001F00BFB002153
:105A70004DF2063001F006FB4A214DF2073001F0ED
:105A800001FB00214DF2083001F0FCFA5C214DF2DF
:105A9000093001F0F7FA00214DF20A3001F0F2FA74
:105AA00081214DF20B3001F0EDFA00214DF20C3066
:105AB00001F0E8FAA6214DF20D3001F0E3FA0021E1
:105AC0004DF20E3001F0DEFAE5214DF20F3001F01B
:105AD000D9FA01214DF2103001F0D4FA13214DF220
