:020000040800F2
:10000000E808002079020008D9340008D13400083B
:10001000D5340008691C0008ED3800080000000015
:10002000000000000000000000000000053500088E
:100030006D1C0008000000008F02000891020008FB
:10004000930200089302000893020008930200083C
:10005000930200089302000893020008930200082C
:10006000930200089302000893020008930200081C
:10007000930200089302000893020008930200080C
:1000800093020008930200089302000893020008FC
:1000900093020008930200089302000893020008EC
:1000A00093020008930200089302000893020008DC
:1000B00093020008930200089302000893020008CC
:1000C00093020008930200089302000893020008BC
:1000D00093020008C537000893020008E9370008BA
:1000E000930200089302000893020008930200089C
:1000F000930200089302000893020008930200088C
:10010000930200089302000893020008930200087B
:10011000930200089302000893020008930200086B
:10012000930200089302000893020008930200085B
:1001300000F002F800F090F80AA090E8000C824469
:100140008344AAF10107DA4501D100F085F8AFF246
:10015000090EBAE80F0013F0010F18BFFB1A43F0A5
:100160000103184710A4000030A40000103A24BF77
:1001700078C878C1FAD8520724BF30C830C144BF0C
:1001800004680C607047000000230024002500264E
:10019000103A28BF78C1FBD8520728BF30C148BFEA
:1001A0000B6070476E2900F02B83702900F02381CB
:1001B000662907F03981652907F03681672907F03C
:1001C0003381612907F0328103681B0A28BF41F09F
:1001D0008001692900F0D882642900F0D582752950
:1001E00000F0D2826F2900F02284782900F0EF809D
:1001F000E92900F0BD83E42900F0BA83F52900F075
:10020000B783EF2900F01F84F82900F0EE8003681F
:10021000DB0928BF41F08001632900F02C8373299A
:1002200000F03183E32900F0F587F32900F0FA8725
:10023000002070471FB501F04BF80400002000219A
:1002400006F09EFF401C60600020002106F082FF47
:10025000E0601FBD10B510BD01F00CF81146FFF7AE
:10026000E9FF06F08DFE01F0E9F803B4FFF7F2FFB5
:1002700003BC03F074FB00000948804709480047AD
:10028000FEE7FEE7FEE7FEE7FEE7FEE7FEE7FEE746
:10029000FEE7FEE704480549054A064B70470000A3
:1002A0000735000831010008E8020020E8080020B6
:1002B000E8040020E8040020704700001CB50C464C
:1002C000064B7B4469460090204600F0B2FA044693
:1002D0000020694600F0C0FA20461CBD93050000CE
:1002E0000FB4044910B503AA029800F0D1FA10BC6B
:1002F0005DF814FB080000200FB41CB5084B06AADB
:100300007B4469460090059800F093FA044600206B
:10031000694600F0A1FA20461CBC5DF814FB000001
:100320005505000070B50C460546012A05D0287811
:10033000800600D5EA69002302E0012305E05B1C8A
:10034000934202D2E05C0028F9D1A869E618C01AED
:10035000A861286A18442862284600F082F904E05F
:10036000D5E9012114F8010B9047B442F8D328468F
:1003700000F08DF970BD0000F0B40D46018809054C
:1003800002D5214C7C4402E01F4C7C440E340021F9
:1003900000F1240608E002F00F071209E75D42EAC7
:1003A00003721B097754491C52EA0307F3D1027800
:1003B0000023120704D5702D06D009B10223113491
:1003C0002246F0BC00F086B901231034F8E770B57E
:1003D00004460D462146106800F073F9024629468E
:1003E0002046BDE870400023C6E7D21D22F0070377
:1003F000D3E90023C0E70368126843F020030360D9
:100400000823C3610023B7E740A000002DE9F05F97
:10041000894604464FF0000ADFF874B1FB44C0F887
:1004200020A02046E1688847002874D0252806D0FF
:10043000D4E901219047206A401C2062F1E70026A0
:100440005F462046E16888472028054607DB312DB6
:1004500005D2781910F8200C08B10643F1E7B0076F
:1004600001D526F00406C4F81CA00027C4F818A083
:100470002A2D09D0284603F06BFA38B304EB87081D
:10048000303DC8F8185019E059F8041B204604EB19
:1004900087029161E1688847012F054618D1E0691C
:1004A000002820DA26F020061DE0D8F8180000EB1E
:1004B000800005EB40003038C8F818002046E1689D
:1004C0008847054603F044FA0028EED1012F0AD0F0
:1004D0002E2D08D12046E16888477F1C0546022F53
:1004E00046F02006C4DBA069002803DA404246F04B
:1004F0000106A061F00701D026F010066C2D0BD08C
:10050000682D09D04C2D39D06A2D35D0742D35D0B9
:100510007A2D33D016E038E0E1682F462046884730
:10052000B842054609D16C2F26D04FF48060E168AF
:10053000064320468847054604E06C2F1AD04FF446
:10054000807006430DB3A5F14100192802D820356B
:1005500046F400664A462946204626604E46FFF786
:1005600021FE80B101280BD0F61D26F0070000F116
:10057000080956E74020E4E78020D8E70020D6E7C6
:1005800006F104094DE7284652E7206ABDE8F09FCE
:10059000D09F000030B505460B462A4613F8014BA4
:1005A00012F8010B08B1A042F8D01CB1002802D00B
:1005B0006D1CF1E7284630BD10B5431C02E010F871
:1005C000011B71B18107FAD14FF0013202C88C1AB8
:1005D0008C4314EAC211F9D0C01A0A0603D0C01E17
:1005E00010BDC01A10BD0A0401D0801E10BD090242
:1005F000FCD0401E10BD10B5203AC0F00B80B1E811
:100600001850203AA0E81850B1E81850A0E8185047
:10061000BFF4F5AF5FEA027C24BFB1E81850A0E850
:10062000185044BF18C918C0BDE810405FEA827C6A
:1006300024BF51F8043B40F8043B08BF7047D20781
:1006400028BF31F8023B48BF11F8012B28BF20F822
:10065000023B48BF00F8012B704770477047704756
:10066000704770B5044685690068C10601D530261B
:1006700000E02026C00707D070BDD4E90121304634
:100680009047206A401C20626D1EF6D570BD70B583
:10069000044685690078C00707D170BDD4E90121FF
:1006A00020209047206A401C20626D1EF6D570BD48
:1006B00009684A0501D540B27047C905FCD500B2AA
:1006C000704709684A0501D5C0B27047C905FCD515
:1006D00080B270472DE9F0470D4699469246044690
:1006E00000F124080168880604D5E06921F01001B2
:1006F000216000E00120A84201DD471B00E0002747
:10070000A1697A1902EB0900081AA0612078C006D5
:1007100002D42046FFF7A5FF002608E0D4E9012116
:100720001AF806009047206A401C761C20624E454D
:10073000F4DB2078C0060AD52046FFF792FF06E0DA
:10074000D4E9012130209047206A401C2062381EE5
:10075000A7F10107F4DC07E0D4E9012118F805004E
:100760009047206A401C2062281EA5F10105F3DC99
:100770002046FFF78CFF2078000602D50220BDE856
:10078000F0870120FBE700002DE9F0410646002438
:1007900010687529314616A510D0FFF789FF00288B
:1007A00002DA404213A507E031688A0701D512A595
:1007B00002E0490704D511A5012401E0FFF781FFFC
:1007C00000210A2206F1240709E0B0FBF2FCB0FB8D
:1007D000F2F302FB1C00303078541846491C002804
:1007E000F3D123462A463046BDE8F041FFF772BFF9
:1007F000000000002D0000002B0000002000000081
:1008000011680268006A530501D508700AE0D30533
:1008100001D5088006E0130603D5C217C1E900021E
:1008200000E008600120704701694A1C02610878F5
:10083000704700B58FB0CDE9013100210591054920
:100840007944CDE9031011466846FFF7DFFD0FB08C
:1008500000BD0000E5FFFFFF0A6802F8010B0A6017
:10086000704710B5436913B1AFF3008001E0FFF7A3
:1008700059FD012010BD127800F124010A700022F8
:100880004A700122EDE711684FF0FF32E9E70000FE
:10089000074B70B50D467B44FFF7CBFF0446284657
:1008A00000F0C4FC10B14FF0FF3070BD204670BDA9
:1008B0005B3600002DE9FF5F15468A460446DFF8E7
:1008C000AC80F8440027D8E900103E46CDE900107E
:1008D00010E03AF816106A4602A800F0ABFC411C82
:1008E00007D02178890603D5E269391891420DD8DD
:1008F0000744761C2078800602D5E069B84205DD01
:10090000AE42E6DB3AF816000028E2D1A069C01B2F
:10091000A0612046FFF7A5FED8E90010CDE9001040
:10092000002017E03AF818106A4602A800F082FC8E
:10093000B0F1FF3F81460BD000250DF1080B05E01B
:10094000D4E901211BF8050090476D1C4D45F7D3F4
:1009500008F10100B0428046E4DB206A384420629E
:100960002046FFF794FEBDE8FF9F00003E9B00007D
:100970002DE9F0418046D21D22F007020025D2E980
:100980000002F52915A614D0011E72F1000106DA45
:100990000023D0EB030063EB020211A608E0D8F8B5
:1009A00000108B0701D50FA602E0490701D50EA65E
:1009B00001251146002408F1240704E000F04EF858
:1009C00030323A55641C50EA0102F7D12B463246C8
:1009D00021464046BDE8F041FFF77CBE0000000024
:1009E0002D0000002B0000002000000030B400218A
:1009F00000F1240408E002F00705D208303542EA8D
:100A00004372DB086554491C52EA0305F3D10468BC
:100A1000002310A2250707D5A40600D421B1C4697C
:100A200001230DA2641EC46130BCFFF753BE10B594
:100A3000044621461068FFF744FE02462046BDE802
:100A400010400023D2E7D21D22F00701D1E9002394
:100A5000CCE70000000000003000000030B5B0F12D
:100A60000A024FEA900E71F100034EEA817EB0EB6C
:100A70000E0061EB91014FEA101E4EEA017E10EB71
:100A80000E0041EB11114FEA102E4EEA016E10EBF1
:100A90000E0041EB11214FEA104E4EEA014E10EBD1
:100AA0000E0041EB1141401841F100014FEAD00026
:100AB00040EA41704FEAD10110EB80054FEA810412
:100AC00044EA907444EB01046D1944EB0404521B96
:100AD000A3414FF0000348BF0A3200D530BD401C8F
:100AE00041F1000130BD70472DE9FF4F0C461E4615
:100AF0004FF0FF378BB0D2E90001DDF860800A903B
:100B00008A46C1F30A5505B93D46002108464FF013
:100B10000000BAF1000F00F4400005DA00EB80009D
:100B20004FF4400101EA50004FEA9059B9F1010F2A
:100B300000DDB9460A9850EA4A000ED044F610503B
:100B4000A5F2FF3545432F14B8F1000F1ED07542B2
:100B5000291E1EDDC9F100021CE0B8F1010F4FF0A3
:100B6000000001D0302103E0F24305E02154401C95
:100B7000B042FBDB30460022002121540B99C1F822
:100B80000880C1E900200FB0BDE8F08FBD1B6D1CCF
:100B9000DEE74A4600DA694206A800F0DDFB06AB54
:100BA00093E8070003AB83E8070050460A9900F07A
:100BB00093FC8DE80700A0F500501F3800900398C3
:100BC000002D0ADD42F21F014A460844002303A912
:100BD0000390684600F0FCFE09E0A0F500504A468C
:100BE0001F38002303A90390684600F006FF8DE834
:100BF00007000004000C03D04FF0FF30410800E074
:100C00001046B8F1000F03D00022009215461EE0F6
:100C1000751E05D4FFF722FF303262556D1EF9D5DF
:100C2000B3460122084302D000227F1C04E0207852
:100C3000302801D100227F1E002A099784D01DE0B0
:100C4000112D07DAFFF70AFF303262556D1C50EAAA
:100C50000102F5D1084302D00098C8B10EE000218E
:100C6000681E05E0235C625C63542254401E491CEC
:100C70008142F7DBAB46A81B401E0990002004F818
:100C80000B000B98099AC0F80880C0E9002B7AE79E
:100C900011264FF0000857E72DE9F04F884604462B
:100CA000D21D22F0070191B0D1E90001CDE90A017E
:100CB00002F01EFE02460B98C00F01D02D2007E067
:100CC0002068810701D52B2002E0202101EAC00025
:100CD000032A099001D0072A05DB03464146204636
:100CE00000F0FAFA0BE12078800601D5E06900E017
:100CF0000620B8F1650F814606D0B8F1660F18D00E
:100D0000B8F1670F70D131E00020B9F1110F0090F8
:100D100001DB112301E009F101030AAA01A90CA8D2
:100D2000FFF7E2FEDDE90C70002609F101058346BC
:100D300047E001204B4600904FF000470AAA01A966
:100D40000CA8FFF7D1FEDDE90DB00C995D46002639
:100D500010B909F101000D18B9EB050003D4C0F179
:100D6000FF3609F10105A5EB09002BE0B9F1010FF0
:100D700001DA4FF001090020B9F1110F0090484647
:100D800001DD112300E003460AAA01A90CA8FFF720
:100D9000ABFEDDE90C704D46002683462078000747
:100DA0000AD4AB4500DA5D4601A8012D04DD4119E6
:100DB00011F8011C302907D04F4502DA17F1040F52
:100DC00004DA012082460FE06D1EEEE7002F02DC00
:100DD000ED1B3E4403E0781CA84200DD7D1CB81BDF
:100DE00000F1010A4FF000472078000703D4AA451C
:100DF00001DB4FF0FF3A0021B7F1004F0DF143083E
:100E00008DF8431024D002202B23002F01DA7F42DB
:100E10002D230A21021EA0F1010000DC5FB197FB27
:100E2000F1FC97FBF1F201FB1C7C17460CF1300C36
:100E300008F801CDEEE7A8F101000370218809054B
:100E400001D5452100E06521A0F1010800F8011C51
:100E500009980FA9A1EB0807FF1D00B10120411956
:100E600001EBEA70A1693844081A401EA06120789D
:100E7000C00602D42046FFF7F4FB099828B1D4E954
:100E800001219047206A401C20622078C00622D5AC
:100E90002046FFF7E6FB1EE0002E04DBB34502DD33
:100EA00001A8805D00E03020D4E901219047206A4C
:100EB000401C2062761CAAF101005FEA000A0AD1F8
:100EC00000F006FAC0680168405CD4E9012190474F
:100ED000206A401C2062281EA5F10105DCDC07E029
:100EE000D4E9012118F8010B9047206A401C2062C8
:100EF000381EA7F10107F3DC2046FFF7C8FB0320EB
:100F000011B041E62DE9F04F04460D46D21D22F006
:100F1000070089B0D0E900974846394602F0E8FC5E
:100F20000246F80F01D02D2307E02068810701D584
:100F30002B2302E0202101EAC0038DF820300BB101
:100F4000012000E00020032A824601D0072A04DBAA
:100F50002946204600F0C0F93FE12078800601D400
:100F60000D2500E0E569C7F30A560D2D49DA002189
:100F70004FEA175B08464FF00000002F00F44000D6
:100F800007DA00EB80004FF4400100EBD07001EA7B
:100F900060008115012901DD4FF0FF3100224FEA89
:100FA000850CBCF1180F06D31346ACF118004FF0B6
:100FB0008052C24003E04FF4801323FA0CF30CF18B
:100FC0000C0CBCF1200F04D3ACF1200C09FA0CF08E
:100FD00001E007FA0CF000294FF0004801DD18B9D4
:100FE0000FE00ED140450CD319EB02095F4121B946
:100FF000404502D19F4329EA0209BBEB175F00D0AD
:10100000761C2088000502D57B48784402E07A48A7
:101010007844193808AA302302F80A30037C0AF110
:101020000101002E0AF1020A53546A4602DC4FF015
:10103000300101E04FF031014FF001088DF8001050
:1010400002D0A6F2FF3603E059EA470100D06B4E0A
:10105000002D02DC2178090704D54FF002082E216B
:101060008DF80110C44600210BE0C7F303433F0194
:10107000C35C491C6D1E02F80830052908F10108FF
:1010800001DA002DF1DC00210CE000EB1973491CA2
:101090001B786D1E082902F808304FEA091908F17B
:1010A000010801DA002DF0DC21688B0602D516E07C
:1010B000A8F10108E04505DD02EB080313F8013C47
:1010C000302BF5D0B8F1000F09DD02EB080313F85F
:1010D000013C2E2B03D1090701D4A8F10108002DF2
:1010E00005DD3E2102F808106D1E08F10108407C64
:1010F000002E02F8080008F1010804DA2D207642DB
:1011000002F8080002E02B2002F808000A214FF440
:101110007A70864208F101080BDB96FBF0F330335E
:1011200002F8083096FBF0F308F1010800FB1366A3
:1011300001E0642E0CDB642096FBF0F3303302F800
:10114000083096FBF0F308F1010800FB136601E09C
:101150000A2E06DB96FBF1F0303002F8080008F1A9
:10116000010896FBF1F001FB1060303002F8080036
:10117000A16908F1010808EB050202EB0A00081A50
:10118000A0612078C00602D42046FFF76AFA216ADF
:1011900008AE01EB0A00206204E0D4E9012116F850
:1011A000010B9047BAF1010AF7D22078C00602D5A8
:1011B0002046FFF756FA6E4609E016F8010B3E2866
:1011C0000FD0D4E901219047206A401C2062B8F179
:1011D0000108F2D22046FFF75AFA09B00320BDE811
:1011E000F08F206A2844206203E0D4E901213020F6
:1011F00090476D1EEBD3F8E71194000002FCFFFF4F
:1012000010B5436913B1AFF3008001E0FFF752FB63
:10121000012010BD128800F1240182840022C284C2
:101220000122EDE711684FF0FF32E9E7007B00F0A3
:101230008000704770B516460C46054600F040F831
:10124000036893F80101012806D0FF2C0FD8185D20
:1012500068B101202C7070BDD3F8070132462146D9
:1012600003F2071303442846BDE8704018474FF0C7
:10127000FF3070BD754600F0EBF8AE4605006946DC
:10128000534620F00700854618B020B5FFF702F856
:10129000BDE820404FF000064FF000074FF0000877
:1012A0004FF0000B21F00701AC46ACE8C009ACE8F8
:1012B000C009ACE8C009ACE8C0098D467047000021
:1012C00010B500F005F8001D10BD00BFB55E0000B0
:1012D00000487047A80200202DE9F0411F4604464F
:1012E00003260168072A01F4006004DB08B116A593
:1012F00005E016A503E008B115A500E015A521F04D
:1013000010002060A069C01EA0610FB1401EA06146
:101310002046FFF7A6F94FB1D4E90121384690479E
:10132000206A401C2062C01C206206E0206AFAE7A6
:10133000D4E9012115F8010B9047761EF8D220461A
:10134000FFF7A5F9BDE8F0814E414E006E616E00D9
:10135000494E4600696E66002DE9F0478146164603
:101360008AB0354878440DC88DE80D00324878447D
:10137000801C03AC0DC884E80D0041F69B30084486
:10138000372190FBF1F290FBF1F5A5F1800501FB0F
:1013900012041B3C02D56442012000E00020DFF86B
:1013A00098A080460027FA44AAF1BE0A0EE0E007A2
:1013B0000AD03246684607EB470101230AEB810158
:1013C00000F01BFB8DE8070064107F1C002CEED1A1
:1013D000194F7F44AE3F19E0E80715D007EB041022
:1013E0000DF1180A90E80E008AE80E00C068F0427D
:1013F00001D1981908903246012306A903A800F0EC
:10140000FCFA03AB83E807006D10641C002DE3D1E8
:101410004FF0010332466946B8F1000F03A802D02D
:1014200000F0D6FA01E000F0E8FAC9E90001C9F8D5
:1014300008200AB0BDE8F0874891000010B50446C6
:10144000AFF300802046BDE81040FEF70EBF00005D
:1014500000487047880200204FF0013C50F8042BF0
:1014600051F8043B9A4221D1A2EB0C03934313EAB7
:10147000CC1317D150F8042B51F8043B9A4215D1E4
:10148000A2EB0C03934313EACC130BD150F8042BBB
:1014900051F8043B9A4209D1A2EB0C03934313EA9F
:1014A000CC13DBD04FF00000704700BFD01A01BA58
:1014B000B1FA81F101F0180122FA01F0CB40C1F13B
:1014C0002001DBB2C0B2C01A2CFA01F3D11A914349
:1014D00011EAC311E6D170475FEA400C08BF91F0F2
:1014E000000F4FEA8C234FEAC12243EA51514FEAE1
:1014F0001C5018BF00F5F0404FEA300018BF41F013
:1015000000415FEA6C5C00F02980BCF1FF3F08BF3E
:1015100040F080407047130C06BF12044FF0100CCF
:101520004FF0000C130E04BF12020CF1080C130F45
:1015300004BF12010CF1040C930F04BF92000CF1D4
:10154000020CD30F04BF52000CF1010C11464FF0F6
:101550000002A0F11F00A0EB0C00704711F0004F3B
:1015600008BF704731F000413FF4D5AF0B0C06BF08
:1015700009044FF0100C4FF0000C0B0E04BF0902D1
:101580000CF1080C0B0F04BF09010CF1040C8B0FBC
:1015900004BF89000CF1020CCB0F04BF49000CF111
:1015A000010CCCF12003A0EB0C0022FA03F302FAA9
:1015B0000CF241EA030100F10100704720F07F4C7A
:1015C00080EA030023F07F47ACEB070303F57C536D
:1015D00000F0004003F1FF032DE980494FEA154B6D
:1015E00009B44FEA144325EA0B4E24EA03480FF2EC
:1015F000042606EB132749083E785FEA320203FB14
:101600000667C7F5000707FB06F64FEA54374FEAAF
:10161000D64606F1020607FB066CCCF1005C4FEAE9
:101620001C472CEA074C07FB06F40CFB06F504EB01
:1016300015464FEA961634BF00204FF000404FEA9F
:10164000D13706FB07FC4FEA1C4C0CFB0BF7D21BF7
:1016500003FB0CF761EB07010CFB0EF7B0EB074047
:1016600072EB17420CFB08F734BFA2EB0742B2EB58
:10167000074261EB17414FEA0C444FEA910706FB22
:1016800007FC4FEA1C4C0CFB0BF7B0EBC74072EBAE
:10169000573203FB0CF734BFA2EBC742B2EBC74291
:1016A00061EB57310CFB0EF7B0EBC70072EB5772D2
:1016B0000CFB08F734BFA2EBC702B2EBC70261EB29
:1016C0005771039F4FEA816141EA921104EBCC0408
:1016D0004FEAD1374FEA826206FB07FC42EA9012DA
:1016E0004FEA80604FEA1C4C0CFB0BF7D21B03FB4C
:1016F0000CF761EB07010CFB0EF7B0EB074072EB48
:1017000017420CFB08F734BFA2EB0742B2EB0742CB
:1017100061EB17414FEA8C554FEA910704EB9C248B
:1017200006FB07FC4FEA1C4C0CFB0BF7B0EBC74069
:1017300072EB573203FB0CF734BFA2EBC742B2EB9C
:10174000C74261EB57310CFB0EF7B0EBC70072EBF1
:1017500057720CFB08F734BFA2EBC702B2EBC7020B
:1017600061EB577115EB4C254FEA816141EA92110B
:101770004FEA82624FEAD13742EA901206FB07FC39
:1017800044F100044FEA80604FEA1C4C0CFB0BF75D
:10179000D21B03FB0CF761EB07010CFB0EF7B0EB60
:1017A000074072EB17420CFB08F734BFA2EB07426D
:1017B000B2EB074261EB174115EB1C154FEA813183
:1017C00041EA92414FEA823242EA90424FEA803047
:1017D0004FEA0C7644F1000448EA03434EEA0B4812
:1017E0004FF0000EB2EB080C71EB030724BF62460A
:1017F00039464EEB0E0E4FF0000B00185241494196
:101800004BEB0B0BB2EB080C71EB03077BF1000BFE
:1018100024BF624639464EEB0E0E4FF0000B001807
:10182000524149414BEB0B0BB2EB080C71EB030738
:101830007BF1000B24BF624639464EEB0E0E51EA97
:10184000020718BF46F0010616EB0E7655F10002AE
:1018500054F1000103D5BDE88901BDE80088BDE869
:101860008901BDE80048B619524141EB0101A3F1DD
:101870000103704780807F7E7D7C7B7A79787776E4
:1018800076757473727171706F6E6E6D6C6C6B6A5D
:101890006A696868676666656464636362616160FB
:1018A000605F5F5E5E5D5D5C5C5B5B5A5A59595878
:1018B00058575756565555555454535352525251E2
:1018C000515050504F4F4F4E4E4D4D4D4C4C4C4B38
:1018D0004B4B4A4A4A49494948484847474747467F
:1018E00046464545454444444443434343424242BB
:1018F00042414141002B9C4630D477002BD01CB58F
:101900004FEA370703B44FF010004FF01001BAF15F
:10191000000F06D0BCF1000FDCBF40F0080040F023
:1019200008014FF000000FBCBDE810400BF1010BA7
:10193000BBF1010F08BF5FEA170722BF12F10102D6
:1019400011F101014FF0004143F1000300F00040AC
:1019500043EA00007047F9D35708D0E746EA064645
:1019600013F1400F4FEA16461FDD13F1200FDFBFC2
:1019700016430A46002120335B42BED0C3F1200744
:1019800046EA064602FA07F74FEA164646EA07060F
:10199000C3F1200722FA03F201FA07F721FA03F153
:1019A0004FF0000342EA0702A7E746EA020646EACA
:1019B00006464FEA164646EA0106BCBF46EA064618
:1019C000360C4FF000034FF000024FF0000194E797
:1019D0002DE9804C9A46934670B491E8380007C8C8
:1019E00031EA400C48BF34EA430C03D5FFF7E6FD6B
:1019F000FFF780FFF0BCBDE8008C2DE9804C9A46D3
:101A0000934670B491E8380007C810F0804F08BFC3
:101A100013F0804F03D100F005F8FFF76BFFF0BC27
:101A2000BDE8008C20F07F4780EA030023F07F4C64
:101A300007EB0C03A3F57C5300F00040A3F1FE0379
:101A400092F0000F00F0B38095F0000F00F0778067
:101A50002DE901494FEA11404FEA144621EA0048B6
:101A600000FB06FC24EA064708FB06F607FB08F81D
:101A700000FB07F718EB06484CEB164C4FEA124BED
:101A800018EB07484FEA15464CEB174022EA0B4E7D
:101A90000BFB06FC25EA06470EFB06F607FB0EFECF
:101AA0000BFB07F71EEB064E4CEB164C4FF00006F7
:101AB0001EEB074E4CEB174B18EB0B0840F10000E8
:101AC00018EB0E0B58EB000840F100008F1A4FF096
:101AD00000013CBFC943661B14BFB5EB040C0021D9
:101AE0003CBFC943F61B4FEA17444EEA8E0E27EA65
:101AF00004454FEA1C4704FB07622CEA074C05FB30
:101B000007F70CFB05F604FB0CFC16EB074642EB53
:101B1000174216EB0C4642EB1C421BEB060658EB39
:101B20000202414146EA9E0601D5BDE80189B61987
:101B3000524141EB0101A3F10103BDE801894FEAE4
:101B400014454FEA114724EA054621EA074C05FBF4
:101B500007F406FB07F70CFB06F105FB0CFC11EB89
:101B6000074144EB17444FEA124711EB0C4144EB99
:101B70001C4422EA074C05FB07F206FB07F70CFBA7
:101B800006F605FB0CFC16EB074642EB174216EB7C
:101B90000C4642EB1C456A1854F1000148BF7047DF
:101BA000B619524141EB0101A3F10103704795F0D1
:101BB000000F37D04FEA11424FEA144721EA02469C
:101BC00024EA074C02FB07F106FB07F70CFB06F4BF
:101BD00002FB0CFC14EB074441EB17414FEA15479D
:101BE00014EB0C4441EB1C4125EA074C02FB07F5C2
:101BF00006FB07F70CFB06F602FB0CFC16EB074690
:101C000045EB174516EB0C4645EB1C42121951F1FA
:101C1000000148BF7047B619524141EB0101A3F1E1
:101C2000010370474FEA14454FEA114724EA05467D
:101C300021EA074C05FB07F106FB07F70CFB06F250
:101C40004FF0000605FB0CFC12EB074241EB17417D
:101C500012EB0C4251EB1C4148BF7047921841EB0C
:101C60000101A3F10103704700BFFEE770470000C8
:101C7000B4B000202F90AC226A4904A8FEF7BBFC48
:101C80004FF4E13001F076FF04466CB166A0FEF738
:101C900027FB08E000BF20216A4800F05DFC00BF80
:101CA000C82002F0E5F8F5E71F2067A110221346CF
:101CB000CDE900210290120178210A2005F08EF86A
:101CC00067A0FEF70DFB01F08DFF044601F04AFE10
:101CD0002044C4B2012001F0C9FF2044C4B202F084
:101CE00003F82044C4B2002001F054FE2044C4B2E2
:101CF0001F2060A110221346CDE90021029012019D
:101D00008C210A2005F06AF85FA162A001F042FF71
:101D10002044C4B230A801F0BFFE2044C4B2CCB10C
:101D20005EA0FEF7DDFA1F2061A110221346CDE967
:101D30000021029012018C210A2005F04FF808E0E2
:101D400000BF20213F4800F007FC00BFC82002F080
:101D50008FF8F5E71F205CA110221346CDE9002182
:101D6000029012018C210A2005F038F81F205CA196
:101D700010221346CDE9002102901201A0210A2071
:101D800005F02CF830A805F015F957A158A001F07E
:101D900029FE0446CCB15AA0FEF7A2FA1F2060A18A
:101DA00010221346CDE9002102901201B4210A202D
:101DB00005F014F808E000BF2021224800F0CCFB19
:101DC00000BFC82002F054F8F5E71F205CA11022E4
:101DD0001346CDE9002102901201B4210A2004F03B
:101DE000FDFF01F0E1FF1BE0002002F01DF90546B8
:101DF000012D02D0022D0AD105E09DF8BC1004A8E7
:101E000002F086F804E02FA801F0E0FF00E000BF38
:101E100000BF9DF8BC0005F06FF90A2002F028F819
:101E2000E2E70000C8A4000841544B2D4D5738325A
:101E300036364420696E6974206661696C65642178
:101E40000D0A0000000C0140455350383236362050
:101E5000696E697420737563636573732100000094
:101E60004A6F696E696E6720746F2041502E2E2E66
:101E70000D0A00004A6F696E696E6720746F204119
:101E8000502E2E2E2E2E2E007079303131313231DF
:101E900000000000456B6B6F5F3031004572726F60
:101EA0007220746F206A6F696E206170210D0A00C4
:101EB0004A6F696E696E6720746F204150206661B9
:101EC000696C6564210000004A6F696E696E672065
:101ED000746F204150207375636365737321000034
:101EE00049503A200000000038303830000000002F
:101EF00034332E3134332E3134312E31380000005A
:101F00004572726F7220746F20636F6E6E656374BA
:101F10002074637020736572766572210D0A00006B
:101F2000436F6E6E65637420746F207468696E67AA
:101F300073626F617264206661696C656421000080
:101F4000436F6E6E65637420746F207468696E678A
:101F500073626F61726420737563636573732100CC
:101F600070B50446B3F5804F13D1D1E9000540EABE
:101F700005108D6840EA05208D6928438D8940EA67
:101F8000054054F82250064E3540284344F82200BC
:101F900003E06FF0704044F82200002070BD0000A4
:101FA0000000F0CF70B50246086852F8200020F01B
:101FB00001000E6842F826008868082801D14023F5
:101FC00000E00023486818438E683043CE683043F1
:101FD0000E6930434E693043CE6930430E6A304358
:101FE0004E6A30438E6A3043CE6A30430E6B40EA0D
:101FF000060488690443486B0443074D45F4806533
:1020000045F4E025086852F82000A84320430E68F4
:1020100042F82600002070BD7FFB080010B5034683
:10202000D1E9000440EA04108C6840EA04208C895D
:1020300040EA0444088A401E44EA0054087D801E99
:1020400044EA00608C692043541C53F8244004F097
:1020500040442043541C43F82400002010BD0000DD
:1020600070B50446002594F82100022803D004200E
:10207000A0630125C1E02068006820F00E002168FF
:1020800008602068006820F00100216808605C4951
:102090002068884252D95A4978392068884201D14B
:1020A000012047E0564964392068884201D1102058
:1020B00040E0534950392068884201D1801539E009
:1020C0004F493C392068884201D1801432E04C49A4
:1020D00028392068884202D14FF480302AE04849EC
:1020E00014392068884202D14FF4801022E044491C
:1020F0002068884201D140041CE04249206888429F
:1021000001D1012016E03F4914312068884201D1F5
:1021100010200FE03B4928312068884201D180150A
:1021200008E038493C312068884201D1801401E040
:102130004FF480303349091F086051E03049783945
:102140002068884201D1012047E02D496439206888
:10215000884201D1102040E0294950392068884246
:1021600001D1801539E026493C392068884201D1E7
:10217000801432E0224928392068884202D14FF485
:1021800080302AE01E4914392068884202D14FF479
:10219000801022E01A492068884201D140041CE0E6
:1021A00018492068884201D1012016E015491431F0
:1021B0002068884201D110200FE0124928312068A0
:1021C000884201D1801508E00E493C3120688842E0
:1021D00001D1801401E04FF4803009498039486012
:1021E000012084F8210000BF002084F8200000BFF7
:1021F000606B10B12046616B8847284670BD0000B7
:1022000080000240080402402DE9F84702460023FE
:102210009C467BE14FF0010808FA03F4D1F80080F6
:1022200008EA0400A0427DD1DFF8F4A2D1F80480CE
:10223000A8EB0A09D0453AD014DCB8F1030F50D00E
:1022400009DCB8F1000F31D0B8F1010F1CD0B8F1A2
:10225000020F49D120E0B8F1110F18D0B8F1120FD8
:1022600042D11EE0B9F5881F25D006DCB9F5803FC4
:1022700020D0B9F5801F37D11AE0B9F5001F18D06A
:10228000B9F5041F30D117E0D1F80CC02DE0D1F81A
:102290000C8008F1040C28E0D1F80C8008F1080C3F
:1022A00023E0D1F80C8008F10C0C1EE000BF00BF49
:1022B00000BF00BF00BF00BFD1F80880B8F1000F19
:1022C00002D14FF0040C0BE0D1F80880B8F1010FF7
:1022D00003D14FF0080C146102E04FF0080C546178
:1022E00003E04FF0000C00E000BF00BFFF2801D862
:1022F000904601E002F104084646FF2802D84FEA62
:10230000830803E0A3F108084FEA88084746D6F897
:1023100000804FF00F0909FA07F928EA09080CFABA
:1023200007F900E07AE048EA0908C6F80080D1F829
:10233000048008F08058B8F1805F6FD100BFDFF8EB
:10234000E481D8F8188048F00108DFF8D891C9F87E
:102350001880C846D8F8188008F00108CDF8008029
:1023600000BF00BF4FEAB9384FEA930958F8295027
:102370004FEA83784FEA18794FF00F0808FA09F806
:1023800025EA0805DFF8A081424502D14FF0000898
:1023900024E0DFF89881424502D14FF001081DE0AA
:1023A000DFF88C81424502D14FF0020816E0DFF8D9
:1023B0008481424502D14FF003080FE0DFF87881B5
:1023C000424502D14FF0040808E0DFF87081424531
:1023D00002D14FF0050801E04FF006084FEA83797B
:1023E0004FEA197908FA09F848EA0505DFF850813B
:1023F0004FEA930948F82950D1F8048008F480384E
:10240000B8F5803F0BD1DFF83C81D8F8008048EA6E
:102410000008DFF83091C9F800800AE075E0DFF8C5
:102420002481D8F8008028EA0008DFF81891C9F85C
:102430000080D1F8048008F40038B8F5003F0ED1D0
:10244000DFF8008108F10408D8F8008048EA0008A5
:10245000DFF8F09009F10409C9F800800DE0DFF819
:10246000E48008F10408D8F8008028EA0008DFF8C2
:10247000D49009F10409C9F80080D1F8048008F467
:102480008018B8F5801F0ED1DFF8B88008F1080871
:10249000D8F8008048EA0008DFF8A89009F1080998
:1024A000C9F800800DE0DFF89C8008F10808D8F832
:1024B000008028EA0008DFF88C9009F10809C9F8C3
:1024C0000080D1F8048008F40018B8F5001F0ED180
:1024D000DFF8708008F10C08D8F8008048EA00089E
:1024E000DFF8609009F10C09C9F800800DE0DFF811
:1024F000548008F10C08D8F8008028EA0008DFF8BA
:10250000449009F10C09C9F800805B1CD1F80080E7
:1025100028FA03F8B8F1000F7FF47CAEBDE8F88725
:10252000000011100010024000080140000C0140A2
:10253000001001400014014000180140001C01403F
:102540000800014000040140024693680B400BB1B3
:10255000012000E00020704710B5C26821EA0203A4
:1025600002EA010443EA0443036110BD0AB10161B8
:1025700001E00B04036170470148006870470000E8
:102580001000002010B50848006840F0100006490F
:102590000860052000F080F80F2000F007F800F038
:1025A0002BF8002010BD00000020024070B504464A
:1025B0000E4800784FF47A71B1FBF0F00C490968CD
:1025C000B1FBF0F5284600F073FC08B1012070BDA6
:1025D000102C07D200222146501E00F01EF805489C
:1025E000046001E00120F2E70020F0E7180000207D
:1025F0000000002014000020704701460846002813
:1026000009DB00F01F0301229A4043099B0003F1FC
:10261000E023C3F8002100BF70472DE9F05F80463A
:102620000D461646002701F077F9074639462A4637
:10263000334601F00700C0F1070ABAF1040F02D9CE
:102640004FF0040A01E0C0F1070AD14600F1040A84
:10265000BAF1070F02D24FF0000A01E0A0F1030A1D
:10266000D4464FF0010A0AFA09FAAAF1010A0AEA65
:10267000020A0AFA0CFA4FF0010B0BFA0CFBABF151
:10268000010B0BEA030B4AEA0B042146404601F01A
:102690004BF9BDE8F09F000000BF00F00702064BB9
:1026A00019684FF6FF031940044B0B4343EA02211C
:1026B000014B196000BF70470CED00E00000FA0507
:1026C00070B504460D460CB9012070BD5A4800682B
:1026D00000F00700A8420ED25748006820F007001B
:1026E0002843554908600846006800F00700A842E2
:1026F00001D00120E9E7207800F0020002281DD176
:10270000207800F00400042805D14C48406840F4CB
:10271000E0604A494860207800F00800082805D1A8
:102720004648406840F46050444948604348406827
:1027300020F0F000A168084340494860207800F08C
:10274000010078B36068012806D13C48006800F4B5
:10275000003090B90120B8E76068022806D13748F8
:10276000006800F0007040B90120AEE7334800680F
:1027700000F0020008B90120A7E73048406820F0C7
:102780000300616808432D494860FFF7F5FE0646DF
:1027900009E0FFF7F1FE801B41F28831884202D93F
:1027A000032092E707E02548406800F00C006168CC
:1027B000B0EB810FEDD12048006800F00700A8427F
:1027C0000ED91D48006820F0070028431A49086008
:1027D0000846006800F00700A84201D0012074E715
:1027E000207800F00400042807D11448406820F441
:1027F000E060E168084311494860207800F0080073
:10280000082808D10D48406820F46050216940EA4A
:10281000C1000A49486000F03FF808494968C1F31F
:102820000311074A515CC840064908600648006821
:10283000FFF7BCFE002048E70020024000100240E5
:1028400030740008000000201400002001480068D7
:10285000704700000000002000B5FFF7F7FF0449B3
:102860004968C1F30221034A515CC84000BD000021
:10287000001002404074000800B5FFF7E7FF04496C
:102880004968C1F3C221034A515CC84000BD000041
:102890000010024040740008F0B585B00FF26C0CD7
:1028A0009CE8E01001A8A0E8E0101CA52D680095A8
:1028B00000210022002300240020194D696801F046
:1028C0000C05F5B1042D02D0082D19D101E01548F1
:1028D00019E001ADC1F38346AC5D01F4803555B11B
:1028E0000F4D6D68C5F340451DF805200D4D65433E
:1028F000B5FBF2F302E00C4D04FB05F3184602E0D1
:1029000000BF084800BF00BF05B0F0BD02030405CA
:10291000060708090A0B0C0D0E0F1010010200002B
:102920000010024000127A0000093D00F8B504468C
:102930000CB90120F8BD207800F00100002878D003
:10294000F848406800F00C0004280CD0F5484068B6
:1029500000F00C00082811D1F248406800F48030E3
:10296000B0F5803F0AD1EF48006800F4003000283D
:102970005FD0606800285CD10120DBE700BF6068A1
:10298000B0F5803F06D1E748006840F48030E54963
:10299000086028E0606858B9E248006820F4803098
:1029A000E04908600846006820F4802008601AE0CA
:1029B0006068B0F5A02F0BD1DA48006840F48020A1
:1029C000D84908600846006840F4803008600AE092
:1029D000D448006820F48030D24908600846006876
:1029E00020F48020086000BF606888B1FFF7C4FD54
:1029F000054606E0FFF7C0FD401B642801D903200F
:102A000098E7C848006800F400300028F2D010E0D1
:102A1000FFF7B2FD054606E0FFF7AEFD401B642858
:102A200001D9032086E7BF48006800F40030002881
:102A3000F2D1207800F00200022857D1B94840684E
:102A400000F00C0050B1B748406800F00C000828B6
:102A500018D1B448406800F4803098B9B148006893
:102A600000F0020020B12069012801D0012061E7B7
:102A7000AC48006820F0F800616940EAC100A9494B
:102A8000086033E02069E8B10120A7490860FFF73A
:102A900073FD054606E0FFF76FFD401B022801D9D4
:102AA000032047E79F48006800F002000028F2D0AA
:102AB0009C48006820F0F800616940EAC10099492B
:102AC000086013E0002098490860FFF755FD0546AF
:102AD00006E0FFF751FD401B022801D9032029E73A
:102AE0009048006800F002000028F2D1207800F041
:102AF000080008282DD1A069B8B101208B490860D1
:102B0000FFF73AFD054606E0FFF736FD401B0228B9
:102B100001D903200EE78348406A00F00200002834
:102B2000F2D0012000F0DAFC13E000207F490860B9
:102B3000FFF722FD054606E0FFF71EFD401B0228B9
:102B400001D90320F6E67748406A00F00200002829
:102B5000F2D1207800F00400042873D100277148D6
:102B6000C06900F0805070B900BF6E48C06940F085
:102B700080506C49C8610846C06900F080500090E0
:102B800000BF00BF01276A48006800F48070B0B938
:102B90006748006840F4807065490860FFF7ECFC06
:102BA000054606E0FFF7E8FC401B642801D9032036
:102BB000C0E65F48006800F480700028F2D000BFD3
:102BC000E068012806D15748006A40F001005549E5
:102BD000086227E0E06858B95248006A20F0010016
:102BE000504908620846006A20F00400086219E0B3
:102BF000E06805280BD14B48006A40F004004949C1
:102C000008620846006A40F0010008620AE0454890
:102C1000006A20F00100434908620846006A20F07B
:102C20000400086200BFE068A0B1FFF7A5FC0546FC
:102C300009E0FFF7A1FC401B41F28831884202D92C
:102C4000032077E622E03748006A00F002000028FF
:102C5000EFD012E0FFF790FC054608E0FFF78CFC90
:102C6000401B41F28831884201D9032062E62D4899
:102C7000006A00F002000028F0D1012F05D1294898
:102C8000C06920F080502749C86100BFE069C8B31F
:102C90002448406800F00C00082860D0E069022851
:102CA00048D1002020490866FFF766FC054606E08B
:102CB000FFF762FC401B022801D903203AE61948BD
:102CC000006800F000700028F2D1206AB0F5803F63
:102CD00007D11448406820F40030A1680843114926
:102CE0004860D4E9080108430E49496821F4741189
:102CF00008430C49486001200B490866FFF73CFC7B
:102D0000054607E03DE0FFF737FC401B022801D9EC
:102D100003200FE60348006800F000700028F2D09E
:102D20002FE00000001002400000424280044242B6
:102D300000700040002014490866FFF71DFC05469E
:102D400006E0FFF719FC401B022801D90320F1E53A
:102D50000E48006800F000700028F2D111E0E06930
:102D6000012800D1E6E50948466806F48031206A6A
:102D7000814204D106F47011606A814201D00120C1
:102D8000D8E50020D6E500000000424200100240D5
:102D900070B504460E4615461CB1A069B0F5807F9B
:102DA00001D1012070BD94F8410028B9002084F8B9
:102DB0004000204600F020F804F108012068FFF7E9
:102DC000F1F83146A2682068FFF728F92946236BFD
:102DD000D4E90102FFF7C4F8A168206850F8210087
:102DE00040F00100A268216841F82200012084F827
:102DF00041000020D6E7000010B586B0044600BFB1
:102E00001E48406940F480701C494861084640698A
:102E100000F48070019000BF00BF00BF08468069C9
:102E200040F0200088610846806900F02000019091
:102E300000BF00BF00BF0846806940F040008861C5
:102E40000846806900F04000019000BF00BF4CF2CE
:102E5000037002900220039001200490032005904B
:102E600002A90748FFF7D0F94FF68070029002A937
:102E70000448FFF7C9F906B010BD00000010024079
:102E80000014014000180140042808D14FF0E0214F
:102E9000096941F004014FF0E022116107E04FF0B1
:102EA000E021096921F004014FF0E022116170472F
:102EB00070B504462546681EB0F1807F01D301201D
:102EC0000FE0681E4FF0E02148610F214FF0FF3006
:102ED00000F02AFD00204FF0E02188610720086102
:102EE000002070BD704700002DE9F04704462068BF
:102EF00005682068C668206847694FF00008C14629
:102F000005F00F08B8F1000F0AD105F0200038B124
:102F100006F0200020B1204600F020FBBDE8F0873D
:102F2000B8F1000F71D007F0010018B906F49070E5
:102F300000286AD005F0010030B106F4807018B1A5
:102F4000E06B40F00100E06305F0040030B107F0F1
:102F5000010018B1E06B40F00200E06305F00200F0
:102F600030B107F0010018B1E06B40F00400E063FD
:102F700005F0080048B106F0200010B907F0010084
:102F800018B1E06B40F00800E063E06B68B305F057
:102F9000200028B106F0200010B1204600F0DEFA33
:102FA00020684069C0F38019E06B00F0080010B998
:102FB000B9F1000F22D0204600F0B0FA2068406935
:102FC00000F04000B0B12068406920F04000216866
:102FD0004861606B50B11848616B4863606BFFF7E4
:102FE0003FF810B1606B416B88470CE02046FFF75B
:102FF00079FF08E02046FFF775FF04E02046FFF761
:1030000071FF0020E06389E7FFE705F0800030B141
:1030100006F0800018B1204600F06EFB7EE705F058
:10302000400030B106F0400018B1204600F086FAAA
:1030300074E700BF72E700000935000810B50446C8
:103040000CB9012010BDA06900B100E000BF94F8E8
:10305000390028B9002084F83800204600F028F80C
:10306000242084F839002068C06820F400502168CA
:10307000C860204600F0C2FA2068006920F4904041
:10308000216808612068406920F02A0021684861B1
:103090002068C06840F400502168C8600020E063E8
:1030A000202084F8390084F83A000020CAE70000A4
:1030B00010B586B004465849206888424BD100BFFD
:1030C00000BF5648806940F00400544988610846B2
:1030D000806900F00400019000BF00BF00BF00BF86
:1030E00000BF0846806940F0040088610846806996
:1030F00000F00400019000BF00BF00BF00BF00BF90
:103100000846806940F4804088610846806900F480
:103110008040019000BF00BF00BF48150290022010
:103120000390012004900320059002A93C48FFF77A
:103130006BF84FF4806002900020039002A9384899
:10314000FFF762F82520FFF758FA032211462520E1
:10315000FFF763FA5DE033492068884259D100BF28
:1031600000BF2E48806940F008002C49886108465D
:10317000806900F00800019000BF00BF00BF00BFE1
:1031800000BF0846806940F00800886108468069F1
:1031900000F00800019000BF00BF00BF00BF00BFEB
:1031A0000846C06940F48020C8610846C06900F440
:1031B0008020019000BF00BF00BF081502900220D0
:1031C0000390002004900320059002A91648FFF701
:1031D0001BF84FF40060029000200390049003203D
:1031E000059002A91048FFF70FF80022114627208A
:1031F000FFF713FA2720FFF700FA2068C06840F0B5
:1032000020002168C8602068C06840F01000216874
:10321000C86006B010BD0000003801400010024038
:103220000008014000480040000C01402DE9F84F23
:1032300004460E46174699464FF0000A94F83A00A5
:1032400020285DD106B117B90120BDE8F88F00BF75
:1032500094F83800012801D10220F6E7012084F813
:10326000380000BF0020E063222084F83A00FFF716
:1032700083F98246A785E785A068B0F5805F04D111
:10328000206910B90025B04602E035464FF000082D
:1032900000BF002084F8380000BF29E05346002218
:1032A00020212046CDF8009000F056FA08B1032006
:1032B000CBE745B920684068C0F30800A8F80000D3
:1032C00008F1020811E0A068B0F5805F03D0A068A3
:1032D00028B9206918B920684068287004E020687F
:1032E000406800F07F0028706D1CE08D401EE08576
:1032F000E08D0028D2D1202084F83A000020A4E7F5
:103300000220A2E710B5034693F83A0020282FD1F7
:1033100001B10AB9012010BD00BF93F8380001289F
:1033200001D10220F7E7012083F8380000BF99623D
:103330009A85DA850020D863222083F83A0000BFFE
:10334000002083F8380000BF1868C06840F480701F
:103350001C68E0601868406940F001001C6860610A
:103360001868C06840F020001C68E0600020D2E7C8
:103370000220D0E71D4A0168914236D11C490988D4
:1033800001F4004189BB1A49098801F4804171B1F7
:10339000184909780A2903D00021154A118024E030
:1033A0001349098841F40041114A11801DE0114977
:1033B00009780D2906D10E49098841F480410C4A4B
:1033C000118012E00B490978094A1288C2F30D02F4
:1033D000094B995406490988491C054A1180114630
:1033E0000988C72901DD002111807047003801409C
:1033F0000C0000200E000020240000202DE9F84FD2
:1034000004460E46174699464FF0000A94F83900D4
:1034100020285AD106B117B90120BDE8F88F00BFA6
:1034200094F83800012801D10220F6E7012084F841
:10343000380000BF0020E063212084F83900FFF746
:103440009BF88246A784E784A068B0F5805F04D12A
:10345000206910B90025B04602E035464FF000085B
:1034600000BF002084F8380000BF1BE05346002254
:1034700080212046CDF8009000F06EF908B10320BD
:10348000CBE745B9B8F80000C0F3080021684860F0
:1034900008F1020803E02878216848606D1CE08C80
:1034A000401EE084E08C0028E0D1534600224021F9
:1034B0002046CDF8009000F04FF908B10320ACE7AA
:1034C000202084F839000020A7E70220A5E77047F4
:1034D00000BFFEE700BFFEE77047000008B50849DF
:1034E0000968C9084FF47A72B1FBF2F141430091C7
:1034F00000BF00BF00994A1E00920029F9D108BD03
:10350000000000207047704770B505466C6A0020C7
:10351000E085E0842046FFF7E5FC70BD0168C968DE
:1035200021F490710268D1600168496921F00101BC
:1035300002685161202180F83A10704710B50446A6
:103540002068C06820F040002168C860202084F80E
:1035500039002046FFF7BBFF002010BD70B50446C0
:1035600094F83A00222847D1A068B0F5805F0CD1CA
:10357000206950B90025A66A20684068C0F3080099
:103580003080A06A801CA06215E0A56A0026A068B1
:10359000B0F5805F03D0A06828B9206918B9206809
:1035A0004068287004E02068406800F07F002870C0
:1035B000A06A401CA062E08D401E80B2E085C8B9C0
:1035C0002068C06820F020002168C8602068C068BA
:1035D00020F480702168C8602068406920F00100F4
:1035E00021684861202084F83A002046FFF7C2FE97
:1035F000002070BD0020FCE70220FAE770B5044609
:103600002168096921F44051E2681143226811617F
:103610002269A1681143626941EA02052168C9680B
:1036200041F20C62914329432268D16021684969C3
:1036300021F44071A2691143226851612D4A216829
:10364000914202D1FFF718F901E0FFF705F900EB0D
:10365000C00101EB001162689200B1FBF2F100EBD6
:10366000C00202EB001263689B00B2FBF3F264231A
:10367000B2FBF3F202EBC20303EB0212A1EB8201F5
:10368000322202EB01116422B1FBF2F101F0F001F0
:1036900000EBC00202EB001263689B00B2FBF3F286
:1036A0006423B2FBF3F201EB021200EBC00101EB69
:1036B000001163689B00B1FBF3F100EBC00303EB67
:1036C00000136668B600B3FBF6F36426B3FBF6F3AB
:1036D00003EBC30606EB0313A1EB8301322303EBD9
:1036E00001116423B1FBF3F101F00F0111442268D1
:1036F000916070BD00380140014691F839002128E1
:1037000028D18868B0F5805F0BD1086948B90A6A8A
:103710001088C0F308000B685860086A801C0862B3
:1037200005E00B6A581C086218780B685860C88C52
:10373000401E80B2C88458B90868C06820F0800074
:103740000B68D8600868C06840F040000B68D8601B
:10375000002070470220FCE72DE9F04104460D46A9
:1037600017469846069E21E0701CF8B12EB1FEF770
:1037700003FFA0EB0800B04218D92068C06820F40D
:10378000D0702168C8602068406920F0010021687D
:103790004861202084F8390084F83A0000BF0020F6
:1037A00084F8380000BF0320BDE8F081206800687D
:1037B0002840A84201D1012000E00020B842D3D027
:1037C0000020F1E710B50648FFF78EFB00BF01228D
:1037D00004490348FFF796FD0028F8D110BD00000A
:1037E000EC0000200E0000201CB53E480068006878
:1037F000C0F3C00090B100BF0020009039480068BD
:1038000000680090374800684068009000BF00BF23
:1038100034480068006833480068406831480068F0
:103820000068C0F3401010B34FF0FF33012201A92C
:103830002C48FFF7FBFC2C48B0F88000C0F30E00CA
:103840007F2815DA9DF804002749B1F88010C1F3EC
:103850000E01254A50541046B0F88000401C114615
:10386000B1F8801060F30E011046A0F880101BE044
:103870001D48B0F880006FF30E001B49A1F88000CE
:103880009DF80400B1F88010C1F30E01164A50549F
:103890001046B0F88000401C1146B1F8801060F36B
:1038A0000E011046A0F880100E4800680068C0F3B2
:1038B0000010B0B10C48B0F8800020F4004000F5D2
:1038C00000400949A1F8800000BF00200090054891
:1038D000006800680090034800684068009000BFDE
:1038E00000BF1CBD84010020C401002000BFFEE712
:1038F000490050EAC12018BF04204A0D18BF40F00B
:10390000010040F2FF72B2EB515F08BF40F00200CD
:10391000012808BF0520704702480068C0F3022054
:10392000704700000CED00E010B5002804DB0A072A
:10393000130E054A135406E00A07140E034A00F05A
:103940000F031B1FD45410BD00E400E018ED00E08D
:1039500030380A2801D2012070470020704700BF8C
:103960007047000070B500250BE04FF4FA7207A114
:1039700007A000F04FF904460CB9002070BD681C88
:10398000C5B20A2DF1DB0120F8E700004F4B000023
:103990004154000070B5054615B1012D10D107E066
:1039A0004FF4FA720AA10BA000F034F9044609E0C2
:1039B0004FF4FA7206A109A000F02CF9044601E0C8
:1039C000032070BD00BF0CB90020FAE70120F8E722
:1039D0004F4B000041544530000000004154453138
:1039E0000000000070B590B004460D462B462246FC
:1039F00008A16846FCF780FC41F288320CA16846B9
:103A000000F008F9064616B9002010B070BD01207C
:103A1000FBE7000041542B43495053544152543D5D
:103A200022544350222C222573222C25730000009F
:103A3000434F4E4E4543540010B54FF4FA7209A15E
:103A400009A000F0E7F804464FF4FA720AA10BA0AF
:103A500000F0E0F82044C4B20CB9002010BD0120F1
:103A6000FCE700004F4B000041542B4349504D4FA1
:103A700044453D31000000003E00000041542B430E
:103A8000495053454E44000010B502A000F058F9CB
:103A900010BD00002B2B2B002DE9F04106464FF402
:103AA000FA720FA10FA000F0B5F8074617B1012078
:103AB000BDE8F08100F062F980460DA1FCF76AFDD7
:103AC00004460BA1601CFCF765FD0546002028702C
:103AD000621C08A13046FCF70FFC0020E8E700005C
:103AE0004F4B000041542B43494653520000000005
:103AF000220000002573000000B585B000BF00BFA4
:103B00000D48806940F004000B49886108468069CF
:103B100000F00400009000BF00BF00BF1020019023
:103B200001200290002003900320049001A9034883
:103B3000FEF76AFB05B000BD00100240000801401E
:103B400010B500BF002210210948FEF70FFD00BF8D
:103B5000642000F08DF900BF012210210448FEF717
:103B600005FD00BF4FF4FA7000F082F910BD0000AF
:103B70000008014010B50446FFF7BEFFFFF7E0FF65
:103B8000204600F0C5F8FFF7EDFE08B1012010BD9A
:103B90000020FCE770B590B004460D462B46224647
:103BA00008A16846FCF7A8FB42F210720AA1684619
:103BB00000F030F8064616B9002010B070BD0120A4
:103BC000FBE7000041542B43574A41503D222573E7
:103BD000222C2225732200005749464920474F5482
:103BE0002049500010B540F6B83205A106A000F0FB
:103BF00011F804460CB9002010BD0120FCE70000BC
:103C0000726561647900000041542B524553544F52
:103C1000524500002DE9F04105460E4614460027A6
:103C200000F0C2F829460FA000F08AF806B114B9D6
:103C30000020BDE8F08110E000F0A0F8074647B191
:103C400031463846FCF7A6FC08B10020F1E700F049
:103C5000ABF8641E012000F00BF9002CECD102201F
:103C6000E7E7000025730D0A0000000070B5054667
:103C7000012D04D0022D0AD0032D18D10FE04FF4EE
:103C8000FA720FA10FA0FFF7C5FF044611E04FF431
:103C9000FA720BA10EA0FFF7BDFF044609E04FF436
:103CA000FA7207A10DA0FFF7B5FF044601E003205B
:103CB00070BD00BF0CB90020FAE70120F8E7000052
:103CC0004F4B000041542B43574D4F44453D31006D
:103CD00041542B43574D4F44453D320041542B43F3
:103CE000574D4F44453D330010B54FF4FA7205A1CE
:103CF00005A0FFF78FFF04460CB9002010BD01207E
:103D0000FCE700004F4B000041542B52535400007D
:103D100010B5044608480949086008464460002177
:103D20008160C16001610C21416100218161C1613B
:103D3000FFF784F910BD0000004800408401002016
:103D40000FB438B505A800900A48009A0499FCF70A
:103D5000B5FA002000900748FCF72EFC84B24FF023
:103D6000FF33224603490448FFF748FB38BC5DF89F
:103D700014FB000046020020840100200948B0F82E
:103D800080000121B1EBD03F09D100200549B1F8F5
:103D90008010C1F30E01034A5054104670470020B2
:103DA000FCE70000C40100200748B0F880006FF372
:103DB0000E000549A1F880000846B0F8800020F404
:103DC0000040A1F880007047C401002070B504468F
:103DD000207868B9FFF730FE05462DB90120207024
:103DE00007A0FCF77DFA0AE00BA0FCF779FA06E0E1
:103DF000FFF74AFE002020700EA0FCF771FA70BD9C
:103E0000456E74657220756E7661726E6973686551
:103E100064210D0A00000000456E74657220756E05
:103E20007661726E6973686564206661696C656449
:103E3000210D0A004578697420756E7661726E698D
:103E400073686564210D0A0010B5044600204FF028
:103E5000E0210861FFF718F82046E11704EB5171E3
:103E6000C1F3CF01014A118010BD00000400002001
:103E700070B504464FF47A7094FBF0F594FBF0F1C2
:103E800000FB114603E0074800F00EF86D1E002D00
:103E9000F9D12EB14FF47A7106FB01F000F004F86D
:103EA00070BD000040420F000146114A12884A438B
:103EB0004FF0E0235A6100229A611A46126942F0DB
:103EC00001021A6100BF4FF0E022106900F0010208
:103ED0001AB100F48032002AF5D04FF0E0221269C6
:103EE00022F001024FF0E0231A6100229A6170472C
:103EF0000400002000BF054A126802F04002002AB8
:103F0000F9D0C2B2014B1B1D1A6070470038014046
:103F100013B584B004469DF8140010B905A8FFF746
:103F200055FF2046FFF70CFF4FF478400BA11022FD
:103F30001346CDE9002102901201C8210A2002F0A7
:103F40004DFF4FF47A70FFF793FF9DF8140001289E
:103F500002D105A8FFF73AFF06B010BD48545450EF
:103F600020504F53542073756363657373210000B1
:103F700000B585B000BF00BF2848806940F0400010
:103F8000264988610846806900F04000009000BF23
:103F900000BF00BF00BF00BF0846806940F040007E
:103FA00088610846806900F04000009000BF00BFB3
:103FB00000BF00BF00BF0846806940F00400886170
:103FC0000846806900F00400009000BF00BF00BFF9
:103FD0001020019000200290012003900320049003
:103FE00001A90F48FEF710F9082001900020029067
:103FF000012003900320049001A90948FEF704F969
:1040000001200190002002900220039003200490E0
:1040100001A90448FEF7F8F805B000BD0010024001
:10402000001801400008014070B50446002514B195
:104030000120224908702148007848B31021204807
:10404000FEF782FA50B108211D48FEF77DFA28B12B
:1040500001211C48FEF778FA012819D10A20FFF740
:1040600007FF00201549087010211548FEF76CFA6B
:1040700000B9012508211248FEF766FA00B90225A9
:1040800001211048FEF760FA012815D1032513E03D
:1040900010210B48FEF758FA01280DD108210848D5
:1040A000FEF752FA012807D101210648FEF74CFA23
:1040B00010B9012001490870284670BD1900002080
:1040C000001801400008014070B504460026094868
:1040D0000588408845430021084602F04FFD02F064
:1040E000F5FE00BF02E004480480761CAE42FAD31D
:1040F00070BD0000740100200008006C10B504467B
:1041000049488471002C45D1F020474908804FF47C
:10411000A07048800846808845F21051884210D12E
:104120004FF43050404908814FF4285048814FF4F3
:104130002C5088814FF4F07008804FF4487048800C
:104140001AE03948808841F6631188420DD12C204D
:10415000354908812B2048812A2088814FF4F0704E
:1041600008804FF44870488006E02C202E490881D2
:104170002A2048812B2088812B48808845F21031E5
:1041800088424CD14FF4A070274908804FF4F0705A
:10419000488044E04FF4A07023490880F020488014
:1041A0000846808845F21051884210D14FF43050B3
:1041B0001D4908814FF4285048814FF42C508881C4
:1041C0004FF4487008804FF4F07048801AE01648A9
:1041D000808841F6631188420DD12C201249088154
:1041E0002A2048812B2088814FF4487008804FF4A2
:1041F000F070488006E02C200B4908812A20488175
:104200002B2088810848808845F21031884206D1E9
:104210004FF4F070044908804FF4A07048800020EB
:1042200002F094FB10BD00007401002070B505463B
:104230000E4614463146284602F0A0FC02F046FE27
:1042400001490C8070BD00000008006C10B5CF2043
:1042500002F030FE002002F021FEC12002F01EFE1E
:10426000302002F01BFEED2002F024FE642002F05C
:1042700015FE032002F012FE122002F00FFE812034
:1042800002F00CFEE82002F015FE852002F006FE8A
:10429000102002F003FE7A2002F000FECB2002F094
:1042A00009FE392002F0FAFD2C2002F0F7FD002073
:1042B00002F0F4FD342002F0F1FD022002F0EEFDE8
:1042C000F72002F0F7FD202002F0E8FDEA2002F0DE
:1042D000F1FD002002F0E2FD002002F0DFFDC02031
:1042E00002F0E8FD1B2002F0D9FDC12002F0E2FD42
:1042F000012002F0D3FDC52002F0DCFD302002F0E9
:10430000CDFD302002F0CAFDC72002F0D3FDB7205A
:1043100002F0C4FD362002F0CDFD482002F0BEFDC3
:104320003A2002F0C7FD552002F0B8FDB12002F09E
:10433000C1FD002002F0B2FD1A2002F0AFFDB62050
:1043400002F0B8FD0A2002F0A9FDA22002F0A6FDAD
:10435000F22002F0AFFD002002F0A0FD262002F0C6
:10436000A9FD012002F09AFDE02002F0A3FD0F203C
:1043700002F094FD2A2002F091FD282002F08EFD2B
:10438000082002F08BFD0E2002F088FD082002F0CC
:1043900085FD542002F082FDA92002F07FFD43201C
:1043A00002F07CFD0A2002F079FD0F2002F076FD7C
:1043B000002002F073FD002002F070FD002002F0EA
:1043C0006DFD002002F06AFDE12002F073FD002087
:1043D00002F064FD152002F061FD172002F05EFD81
:1043E000072002F05BFD112002F058FD062002F0CC
:1043F00055FD2B2002F052FD562002F04FFD3C20CF
:1044000002F04CFD052002F049FD102002F046FDAF
:104410000F2002F043FD3F2002F040FD3F2002F05C
:104420003DFD0F2002F03AFD2B2002F043FD00205D
:1044300002F034FD002002F031FD012002F02EFDDB
:104440003F2002F02BFD2A2002F034FD002002F074
:1044500025FD002002F022FD002002F01FFDEF20CC
:1044600002F01CFD112002F025FD7820FFF700FD71
:10447000292002F01FFD10BD10B5ED2002F01AFD3D
:10448000012002F00BFDFE2002F008FDEE2002F0FC
:1044900011FDDE2002F002FD212002F0FFFCF120E0
:1044A00002F008FD012002F0F9FCDF2002F002FD1D
:1044B000102002F0F3FCC42002F0FCFC8F2002F07C
:1044C000EDFCC62002F0F6FC002002F0E7FCE22042
:1044D00002F0E4FCE22002F0E1FCE22002F0DEFC6B
:1044E000BF2002F0E7FCAA2002F0D8FCB02002F0C6
:1044F000E1FC0D2002F0D2FC002002F0CFFC0D20E8
:1045000002F0CCFC002002F0C9FC112002F0C6FC35
:10451000002002F0C3FC192002F0C0FC002002F0D1
:10452000BDFC212002F0BAFC002002F0B7FC2D20D7
:1045300002F0B4FC002002F0B1FC3D2002F0AEFC21
:10454000002002F0ABFC5D2002F0A8FC002002F08D
:10455000A5FC5D2002F0A2FC002002F09FFCB1202F
:1045600002F0A8FC802002F099FC002002F096FCEA
:104570008B2002F093FC002002F090FC962002F0C9
:104580008DFC002002F08AFCB22002F093FC002097
:1045900002F084FC002002F081FC022002F07EFC8C
:1045A000002002F07BFC032002F078FC002002F0E7
:1045B00075FCB32002F07EFC002002F06FFC0020AE
:1045C00002F06CFC002002F069FC002002F066FCA6
:1045D000002002F063FC002002F060FC002002F0EA
:1045E0005DFC002002F05AFC002002F057FC002085
:1045F00002F054FC002002F051FC002002F04EFCBE
:10460000002002F04BFC002002F048FC002002F0E9
:1046100045FC002002F042FC002002F03FFC00209C
:1046200002F03CFC002002F039FC002002F036FCD5
:10463000002002F033FC002002F030FC002002F0E9
:104640002DFC002002F02AFCB42002F033FC8B2069
:1046500002F024FC002002F021FC962002F01EFC57
:10466000002002F01BFCA12002F018FC002002F048
:1046700015FCB52002F01EFC022002F00FFC002009
:1046800002F00CFC032002F009FC002002F006FC02
:10469000042002F003FC002002F000FCB62002F02F
:1046A00009FC002002F0FAFB002002F0F7FBB72023
:1046B00002F000FC002002F0F1FB002002F0EEFB13
:1046C0003F2002F0EBFB002002F0E8FB5E2002F04E
:1046D000E5FB002002F0E2FB642002F0DFFB00209B
:1046E00002F0DCFB8C2002F0D9FB002002F0D6FBAC
:1046F000AC2002F0D3FB002002F0D0FBDC2002F063
:10470000CDFB002002F0CAFB702002F0C7FB0020A6
:1047100002F0C4FB902002F0C1FB002002F0BEFBBF
:10472000EB2002F0BBFB002002F0B8FBDC2002F023
:10473000B5FB002002F0B2FBB82002F0BBFB00206A
:1047400002F0ACFB002002F0A9FB002002F0A6FB67
:10475000002002F0A3FB002002F0A0FB002002F0EA
:104760009DFB002002F09AFB002002F097FBBA208C
:1047700002F0A0FB242002F091FB002002F08EFB4F
:10478000002002F08BFB002002F088FBC12002F029
:1047900091FB202002F082FB002002F07FFB5420DE
:1047A00002F07CFB002002F079FBFF2002F076FB98
:1047B000002002F073FBC22002F07CFB0A2002F012
:1047C0006DFB002002F06AFB042002F067FB002072
:1047D00002F064FBC32002F06DFB3C2002F05EFBA4
:1047E000002002F05BFB3A2002F058FB002002F0B0
:1047F00055FB392002F052FB002002F04FFB37201E
:1048000002F04CFB002002F049FB3C2002F046FB8A
:10481000002002F043FB362002F040FB002002F0B3
:104820003DFB322002F03AFB002002F037FB2F2044
:1048300002F034FB002002F031FB2C2002F02EFBB2
:10484000002002F02BFB292002F028FB002002F0C0
:1048500025FB262002F022FB002002F01FFB242073
:1048600002F01CFB002002F019FB242002F016FBD2
:10487000002002F013FB232002F010FB002002F0C6
:104880000DFB3C2002F00AFB002002F007FB362063
:1048900002F004FB002002F001FB322002F0FEFADD
:1048A000002002F0FBFA2F2002F0F8FA002002F0BC
:1048B000F5FA2C2002F0F2FA002002F0EFFA29209B
:1048C00002F0ECFA002002F0E9FA262002F0E6FA03
:1048D000002002F0E3FA242002F0E0FA002002F0C7
:1048E000DDFA242002F0DAFA002002F0D7FA2320C1
:1048F00002F0D4FA002002F0D1FAC42002F0DAFA71
:10490000622002F0CBFA002002F0C8FA052002F083
:10491000C5FA002002F0C2FA842002F0BFFA00209B
:1049200002F0BCFAF02002F0B9FA002002F0B6FA68
:10493000182002F0B3FA002002F0B0FAA42002F02E
:10494000ADFA002002F0AAFA182002F0A7FA00201F
:1049500002F0A4FA502002F0A1FA002002F09EFA20
:104960000C2002F09BFA002002F098FA172002F0C7
:1049700095FA002002F092FA952002F08FFA0020BA
:1049800002F08CFAF32002F089FA002002F086FA95
:10499000E62002F083FA002002F080FAC52002F03F
:1049A00089FA322002F07AFA002002F077FA4420E5
:1049B00002F074FA002002F071FA652002F06EFA3B
:1049C000002002F06BFA762002F068FA002002F074
:1049D00065FA882002F062FA002002F05FFAC62031
:1049E00002F068FA202002F059FA002002F056FA8C
:1049F000172002F053FA002002F050FA012002F0D2
:104A00004DFA002002F04AFAC72002F053FA0020C3
:104A100002F044FA002002F041FA002002F03EFACF
:104A2000002002F03BFAC82002F044FA002002F015
:104A300035FA002002F032FA002002F02FFA0020AE
:104A400002F02CFAC92002F035FA002002F026FA12
:104A5000002002F023FA002002F020FA002002F0E9
:104A60001DFA002002F01AFA002002F017FA0020C6
:104A700002F014FA002002F011FA002002F00EFAFF
:104A8000002002F00BFA002002F008FA002002F0E9
:104A900005FA002002F002FA002002F0FFF90020DF
:104AA00002F0FCF9002002F0F9F9E02002F002FA2D
:104AB000162002F0F3F9002002F0F0F91C2002F0B9
:104AC000EDF9002002F0EAF9212002F0E7F90020D8
:104AD00002F0E4F9362002F0E1F9002002F0DEF9FC
:104AE000462002F0DBF9002002F0D8F9522002F053
:104AF000D5F9002002F0D2F9642002F0CFF90020AD
:104B000002F0CCF97A2002F0C9F9002002F0C6F9CF
:104B10008B2002F0C3F9002002F0C0F9992002F0C6
:104B2000BDF9002002F0BAF9A82002F0B7F9002080
:104B300002F0B4F9B92002F0B1F9002002F0AEF9A8
:104B4000C42002F0ABF9002002F0A8F9CA2002F05C
:104B5000A5F9002002F0A2F9D22002F09FF900206E
:104B600002F09CF9D92002F099F9002002F096F9A0
:104B7000E02002F093F9002002F090F9F32002F017
:104B80008DF9002002F08AF9E12002F093F9162055
:104B900002F084F9002002F081F91C2002F07EF975
:104BA000002002F07BF9222002F078F9002002F0C8
:104BB00075F9362002F072F9002002F06FF94520F5
:104BC00002F06CF9002002F069F9522002F066F957
:104BD000002002F063F9642002F060F9002002F086
:104BE0005DF97A2002F05AF9002002F057F98B2083
:104BF00002F054F9002002F051F9992002F04EF928
:104C0000002002F04BF9A82002F048F9002002F041
:104C100045F9B92002F042F9002002F03FF9C42022
:104C200002F03CF9002002F039F9CA2002F036F90E
:104C3000002002F033F9D22002F030F9002002F017
:104C40002DF9D82002F02AF9002002F027F9E020FF
:104C500002F024F9002002F021F9F32002F01EF9FD
:104C6000002002F01BF9E22002F024F9052002F0F6
:104C700015F9002002F012F90B2002F00FF90020C4
:104C800002F00CF91B2002F009F9002002F006F9ED
:104C9000342002F003F9002002F000F9442002F071
:104CA000FDF8002002F0FAF84F2002F0F7F800209B
:104CB00002F0F4F8612002F0F1F8002002F0EEF8C2
:104CC000792002F0EBF8002002F0E8F8882002F0EA
:104CD000E5F8002002F0E2F8972002F0DFF800206B
:104CE00002F0DCF8A62002F0D9F8002002F0D6F895
:104CF000B72002F0D3F8002002F0D0F8C22002F072
:104D0000CDF8002002F0CAF8C72002F0C7F8002052
:104D100002F0C4F8D12002F0C1F8002002F0BEF881
:104D2000D62002F0BBF8002002F0B8F8DD2002F037
:104D3000B5F8002002F0B2F8F32002F0AFF800203E
:104D400002F0ACF8E32002F0B5F8052002F0A6F876
:104D5000002002F0A3F80A2002F0A0F8002002F0E0
:104D60009DF81C2002F09AF8002002F097F83320FA
:104D700002F094F8002002F091F8442002F08EF83E
:104D8000002002F08BF8502002F088F8002002F09A
:104D900085F8622002F082F8002002F07FF8782087
:104DA00002F07CF8002002F079F8882002F076F812
:104DB000002002F073F8972002F070F8002002F053
:104DC0006DF8A62002F06AF8002002F067F8B7201C
:104DD00002F064F8002002F061F8C22002F05EF8F0
:104DE000002002F05BF8C72002F058F8002002F023
:104DF00055F8D12002F052F8002002F04FF8D520EB
:104E000002F04CF8002002F049F8DD2002F046F8EC
:104E1000002002F043F8F32002F040F8002002F0F6
:104E20003DF8E42002F046F8012002F037F80020B7
:104E300002F034F8012002F031F8002002F02EF8E0
:104E4000022002F02BF8002002F028F82A2002F0BD
:104E500025F8002002F022F83C2002F01FF8002084
:104E600002F01CF84B2002F019F8002002F016F8AE
:104E70005D2002F013F8002002F010F8742002F018
:104E80000DF8002002F00AF8842002F007F8002054
:104E900002F004F8932002F001F8002001F0FEFF78
:104EA000A22001F0FBFF002001F0F8FFB32001F089
:104EB000F5FF002001F0F2FFBE2001F0EFFF00201F
:104EC00001F0ECFFC42001F0E9FF002001F0E6FF53
:104ED000CD2001F0E3FF002001F0E0FFD32001F03E
:104EE000DDFF002001F0DAFFDD2001F0D7FF002018
:104EF00001F0D4FFF32001F0D1FF002001F0CEFF3C
:104F0000E52001F0D7FF002001F0C8FF002001F0EC
:104F1000C5FF002001F0C2FF002001F0BFFF02200A
:104F200001F0BCFF002001F0B9FF292001F0B6FF1D
:104F3000002001F0B3FF3C2001F0B0FF002001F0A1
:104F4000ADFF4B2001F0AAFF002001F0A7FF5D207C
:104F500001F0A4FF002001F0A1FF742001F09EFFEA
:104F6000002001F09BFF842001F098FF002001F059
:104F700095FF932001F092FF002001F08FFFA22007
:104F800001F08CFF002001F089FFB32001F086FFC3
:104F9000002001F083FFBE2001F080FF002001F01F
:104FA0007DFFC42001F07AFF002001F077FFCD20C3
:104FB00001F074FF002001F071FFD32001F06EFFBB
:104FC000002001F06BFFDC2001F068FF002001F001
:104FD00065FFF32001F062FF002001F05FFFE62093
:104FE00001F068FF112001F059FF002001F056FF89
:104FF000342001F053FF002001F050FF562001F053
:105000004DFF002001F04AFF762001F047FF00200D
:1050100001F044FF772001F041FF002001F03EFF46
:10502000662001F03BFF002001F038FF882001F0EE
:1050300035FF002001F032FF992001F02FFF002002
:1050400001F02CFFBB2001F029FF002001F026FF1A
:10505000992001F023FF002001F020FF662001F0DD
:105060001DFF002001F01AFF552001F017FF00205E
:1050700001F014FF552001F011FF002001F00EFF98
:10508000452001F00BFF002001F008FF432001F054
:1050900005FF002001F002FF442001F0FFFE002088
:1050A00001F0FCFEE72001F005FF322001F0F6FEE2
:1050B000002001F0F3FE552001F0F0FE002001F089
:1050C000EDFE762001F0EAFE002001F0E7FE66200A
:1050D00001F0E4FE002001F0E1FE672001F0DEFEB9
:1050E000002001F0DBFE672001F0D8FE002001F077
:1050F000D5FE872001F0D2FE002001F0CFFE9920DE
:1051000001F0CCFE002001F0C9FEBB2001F0C6FE7C
:10511000002001F0C3FE992001F0C0FE002001F044
:10512000BDFE772001F0BAFE002001F0B7FE44205A
:1051300001F0B4FE002001F0B1FE562001F0AEFEF9
:10514000002001F0ABFE232001F0A8FE002001F0BA
:10515000A5FE332001F0A2FE002001F09FFE4520B5
:1051600001F09CFE002001F099FEE82001F0A2FE73
:10517000002001F093FE002001F090FE992001F044
:105180008DFE002001F08AFE872001F087FE0020BE
:1051900001F084FE882001F081FE002001F07EFEF7
:1051A000772001F07BFE002001F078FE662001F000
:1051B00075FE002001F072FE882001F06FFE0020D5
:1051C00001F06CFEAA2001F069FE002001F066FEED
:1051D000BB2001F063FE002001F060FE992001F089
:1051E0005DFE002001F05AFE662001F057FE00200F
:1051F00001F054FE552001F051FE002001F04EFE5A
:10520000552001F04BFE002001F048FE442001F043
:1052100045FE002001F042FE442001F03FFE002048
:1052200001F03CFE552001F039FE002001F036FE71
:10523000E92001F03FFEAA2001F030FE002001F03D
:105240002DFE002001F02AFE002001F027FE0020A4
:1052500001F030FEAA2001F021FECF2001F02AFE4D
:10526000002001F01BFE002001F018FE002001F0DC
:1052700015FE002001F012FE002001F00FFE0020BC
:1052800001F00CFE002001F009FE002001F006FEF6
:10529000002001F003FE002001F000FE002001F0DC
:1052A000FDFD002001F0FAFD002001F0F7FD0020D7
:1052B00001F0F4FD002001F0F1FD002001F0EEFD11
:1052C000002001F0EBFDF02001F0F4FD002001F0E2
:1052D000E5FD502001F0E2FD002001F0DFFD00209F
:1052E00001F0DCFD002001F0D9FDF32001F0E2FD2A
:1052F000002001F0D3FDF92001F0DCFD062001F0D3
:10530000CDFD102001F0CAFD292001F0C7FD0020CD
:1053100001F0C4FD3A2001F0CDFD552001F0BEFDA5
:10532000112001F0C7FD6420FEF7A2FD292001F045
:10533000C1FD352001F0BEFD002001F0AFFD512080
:1053400001F0B8FDFF2001F0A9FD532001F0B2FDEE
:105350002C2001F0A3FD552001F0ACFD822001F0CE
:105360009DFD2C2001F0A6FD10BD10B555214FF478
:10537000704001F0B5FDAA214FF2010001F0B0FD2F
:1053800052214FF2020001F0ABFD08214FF2030061
:1053900001F0A6FD01214FF2040001F0A1FD0D2155
:1053A0004FF4304001F09CFD0D214BF2010001F063
:1053B00097FD0D214BF2020001F092FD34214FF4D4
:1053C000364001F08DFD34214BF2016001F088FD83
:1053D00034214BF2026001F083FD0D214FF4314086
:1053E00001F07EFD0D214BF2011001F079FD0D2140
:1053F0004BF2021001F074FD34214FF4374001F0FC
:105400006FFD34214BF2017001F06AFD34214BF243
:10541000027001F065FD00214FF4324001F060FDA3
:1054200000214BF2012001F05BFD00214BF2022034
:1054300001F056FD24214FF4384001F051FD2421A4
:105440004BF6010001F04CFD24214BF6020001F067
:1054500047FD01214FF43F4001F042FD0F214FF481
:10546000334001F03DFD0F214BF2013001F038FDDA
:105470000F214BF2023001F033FD34214FF439405B
:1054800001F02EFD34214BF6011001F029FD3421ED
:105490004BF6021001F024FD08214FF4354001F0D5
:1054A0001FFD08214BF2015001F01AFD08214BF2BB
:1054B000025001F015FD03214FF4424001F010FDB0
:1054C00024214FF43A4001F00BFD24214BF601203A
:1054D00001F006FD24214BF6022001F001FD002120
:1054E0004FF43C4001F0FCFC78214BF6014001F008
:1054F000F7FC00214BF6024001F0F2FC00214FF4D2
:105500003D4001F0EDFC78214BF6015001F0E8FC44
:1055100000214BF6025001F0E3FC00214FF43E4025
:1055200001F0DEFC64214BF6016001F0D9FC0021A2
:105530004FF4514001F0D4FC33214DF2011001F041
:10554000CFFC00214DF2021001F0CAFC34214DF2D3
:10555000031001F0C5FC00214DF2041001F0C0FC65
:105560003A214DF2051001F0BBFC00214DF206106E
:1055700001F0B6FC4A214DF2071001F0B1FC002108
:105580004DF2081001F0ACFC5C214DF2091001F065
:10559000A7FC00214DF20A1001F0A2FC81214DF27E
:1055A0000B1001F09DFC00214DF20C1001F098FC55
:1055B000A6214DF20D1001F093FC00214DF20E10CA
:1055C00001F08EFCE5214DF20F1001F089FC012164
:1055D0004DF2101001F084FC13214DF2111001F076
:1055E0007FFC01214DF2121001F07AFC54214DF2A2
:1055F000131001F075FC01214DF2141001F070FC44
:1056000082214DF2151001F06BFC01214DF21610B4
:1056100001F066FCCA214DF2171001F061FC022175
:105620004DF2181001F05CFC00214DF2191001F050
:1056300057FC02214DF21A1001F052FC01214DF2EB
:105640001B1001F04DFC02214DF21C1001F048FC32
:1056500034214DF21D1001F043FC02214DF21E10C9
:1056600001F03EFC67214DF21F1001F039FC0221D0
:105670004DF2201001F034FC84214DF2211001F094
:105680002FFC02214DF2221001F02AFCA4214DF240
:10569000231001F025FC02214DF2241001F020FC22
:1056A000B7214DF2251001F01BFC02214DF226100E
:1056B00001F016FCCF214DF2271001F011FC022160
:1056C0004DF2281001F00CFCDE214DF2291001F002
:1056D00007FC02214DF22A1001F002FCF2214DF2EA
:1056E0002B1001F0FDFB02214DF22C1001F0F8FB14
:1056F000FE214DF22D1001F0F3FB03214DF22E108F
:1057000001F0EEFB10214DF22F1001F0E9FB032117
:105710004DF2301001F0E4FB33214DF2311001F075
:10572000DFFB03214DF2321001F0DAFB6D214DF267
:10573000331001F0D5FB00214FF4524001F0D0FBB3
:1057400033214DF2012001F0CBFB00214DF202206C
:1057500001F0C6FB34214DF2032001F0C1FB002112
:105760004DF2042001F0BCFB3A214DF2052001F07E
:10577000B7FB00214DF2062001F0B2FB4A214DF2A9
:10578000072001F0ADFB00214DF2082001F0A8FB3D
:105790005C214DF2092001F0A3FB00214DF20A200B
:1057A00001F09EFB81214DF20B2001F099FB0021BD
:1057B0004DF20C2001F094FBA6214DF20D2001F0DA
:1057C0008FFB00214DF20E2001F08AFBE5214DF206
:1057D0000F2001F085FB01214DF2102001F080FB2C
:1057E00013214DF2112001F07BFB01214DF212201B
:1057F00001F076FB54214DF2132001F071FB0121E1
:105800004DF2142001F06CFB82214DF2152001F0C5
:1058100067FB01214DF2162001F062FBCA214DF217
:10582000172001F05DFB02214DF2182001F058FB1A
:1058300000214DF2192001F053FB02214DF21A20F4
:1058400001F04EFB01214DF21B2001F049FB02212A
:105850004DF21C2001F044FB34214DF21D2001F0DB
:105860003FFB02214DF21E2001F03AFB67214DF271
:105870001F2001F035FB02214DF2202001F030FB0A
:1058800084214DF2212001F02BFB02214DF2222038
:1058900001F026FBA4214DF2232001F021FB02217F
:1058A0004DF2242001F01CFBB7214DF2252001F020
:1058B00017FB02214DF2262001F012FBCF214DF201
:1058C000272001F00DFB02214DF2282001F008FBFA
:1058D000DE214DF2292001F003FB02214DF22A20A6
:1058E00001F0FEFAF2214DF22B2001F0F9FA02212B
:1058F0004DF22C2001F0F4FAFE214DF22D2001F0A2
:10590000EFFA03214DF22E2001F0EAFA10214DF2B8
:105910002F2001F0E5FA03214DF2302001F0E0FAEA
:1059200033214DF2312001F0DBFA03214DF2322018
:1059300001F0D6FA6D214DF2332001F0D1FA0021A9
:105940004FF4534001F0CCFA33214DF2013001F015
:10595000C7FA00214DF2023001F0C2FA34214DF2B3
:10596000033001F0BDFA00214DF2043001F0B8FA25
:105970003A214DF2053001F0B3FA00214DF2063024
:1059800001F0AEFA4A214DF2073001F0A9FA0021E8
:105990004DF2083001F0A4FA5C214DF2093001F01B
:1059A0009FFA00214DF20A3001F09AFA81214DF25E
:1059B0000B3001F095FA00214DF20C3001F090FA15
:1059C000A6214DF20D3001F08BFA00214DF20E3080
:1059D00001F086FAE5214DF20F3001F081FA012144
:1059E0004DF2103001F07CFA13214DF2113001F02C
:1059F00077FA01214DF2123001F072FA54214DF282
:105A0000133001F06DFA01214DF2143001F068FA03
:105A100082214DF2153001F063FA01214DF216306A
:105A200001F05EFACA214DF2173001F059FA022155
:105A30004DF2183001F054FA00214DF2193001F006
:105A40004FFA02214DF21A3001F04AFA01214DF2CB
:105A50001B3001F045FA02214DF21C3001F040FAF2
:105A600034214DF21D3001F03BFA02214DF21E307F
:105A700001F036FA67214DF21F3001F031FA0221B0
:105A80004DF2203001F02CFA84214DF2213001F04A
:105A900027FA02214DF2223001F022FAA4214DF220
:105AA000233001F01DFA02214DF2243001F018FAE2
:105AB000B7214DF2253001F013FA02214DF22630C4
:105AC00001F00EFACF214DF2273001F009FA022140
:105AD0004DF2283001F004FADE214DF2293001F0B8
